{"contracts/MarshaPlus.sol":{"MarshaToken":{"abi":[{"inputs":[{"internalType":"address","name":"_community","type":"address"},{"internalType":"address","name":"_charity","type":"address"},{"internalType":"address","name":"_foundation","type":"address"},{"internalType":"address","name":"_development","type":"address"},{"internalType":"address","name":"_marketing","type":"address"},{"internalType":"address","name":"_investors","type":"address"},{"internalType":"address","name":"_legal","type":"address"},{"internalType":"address","name":"_expansion","type":"address"}],"stateMutability":"nonpayable","type":"constructor"},{"anonymous":false,"inputs":[{"indexed":true,"internalType":"address","name":"owner","type":"address"},{"indexed":true,"internalType":"address","name":"spender","type":"address"},{"indexed":false,"internalType":"uint256","name":"value","type":"uint256"}],"name":"Approval","type":"event"},{"anonymous":false,"inputs":[{"indexed":true,"internalType":"address","name":"from","type":"address"},{"indexed":true,"internalType":"address","name":"to","type":"address"},{"indexed":false,"internalType":"uint256","name":"value","type":"uint256"}],"name":"Transfer","type":"event"},{"inputs":[],"name":"ANNUAL_BURN_RATE","outputs":[{"internalType":"uint256","name":"","type":"uint256"}],"stateMutability":"view","type":"function"},{"inputs":[],"name":"INITIAL_SUPPLY","outputs":[{"internalType":"uint256","name":"","type":"uint256"}],"stateMutability":"view","type":"function"},{"inputs":[{"internalType":"address","name":"owner","type":"address"},{"internalType":"address","name":"spender","type":"address"}],"name":"allowance","outputs":[{"internalType":"uint256","name":"","type":"uint256"}],"stateMutability":"view","type":"function"},{"inputs":[{"internalType":"address","name":"spender","type":"address"},{"internalType":"uint256","name":"amount","type":"uint256"}],"name":"approve","outputs":[{"internalType":"bool","name":"","type":"bool"}],"stateMutability":"nonpayable","type":"function"},{"inputs":[{"internalType":"address","name":"account","type":"address"}],"name":"balanceOf","outputs":[{"internalType":"uint256","name":"","type":"uint256"}],"stateMutability":"view","type":"function"},{"inputs":[],"name":"charity","outputs":[{"internalType":"address","name":"","type":"address"}],"stateMutability":"view","type":"function"},{"inputs":[],"name":"community","outputs":[{"internalType":"address","name":"","type":"address"}],"stateMutability":"view","type":"function"},{"inputs":[],"name":"decimals","outputs":[{"internalType":"uint8","name":"","type":"uint8"}],"stateMutability":"view","type":"function"},{"inputs":[{"internalType":"address","name":"spender","type":"address"},{"internalType":"uint256","name":"subtractedValue","type":"uint256"}],"name":"decreaseAllowance","outputs":[{"internalType":"bool","name":"","type":"bool"}],"stateMutability":"nonpayable","type":"function"},{"inputs":[],"name":"development","outputs":[{"internalType":"address","name":"","type":"address"}],"stateMutability":"view","type":"function"},{"inputs":[],"name":"expansion","outputs":[{"internalType":"address","name":"","type":"address"}],"stateMutability":"view","type":"function"},{"inputs":[],"name":"foundation","outputs":[{"internalType":"address","name":"","type":"address"}],"stateMutability":"view","type":"function"},{"inputs":[{"internalType":"address","name":"spender","type":"address"},{"internalType":"uint256","name":"addedValue","type":"uint256"}],"name":"increaseAllowance","outputs":[{"internalType":"bool","name":"","type":"bool"}],"stateMutability":"nonpayable","type":"function"},{"inputs":[],"name":"investors","outputs":[{"internalType":"address","name":"","type":"address"}],"stateMutability":"view","type":"function"},{"inputs":[],"name":"lastBurnTimestamp","outputs":[{"internalType":"uint256","name":"","type":"uint256"}],"stateMutability":"view","type":"function"},{"inputs":[],"name":"legal","outputs":[{"internalType":"address","name":"","type":"address"}],"stateMutability":"view","type":"function"},{"inputs":[],"name":"marketing","outputs":[{"internalType":"address","name":"","type":"address"}],"stateMutability":"view","type":"function"},{"inputs":[],"name":"name","outputs":[{"internalType":"string","name":"","type":"string"}],"stateMutability":"view","type":"function"},{"inputs":[],"name":"symbol","outputs":[{"internalType":"string","name":"","type":"string"}],"stateMutability":"view","type":"function"},{"inputs":[],"name":"timeOfContractCreation","outputs":[{"internalType":"uint256","name":"","type":"uint256"}],"stateMutability":"view","type":"function"},{"inputs":[],"name":"totalSupply","outputs":[{"internalType":"uint256","name":"","type":"uint256"}],"stateMutability":"view","type":"function"},{"inputs":[{"internalType":"address","name":"recipient","type":"address"},{"internalType":"uint256","name":"amount","type":"uint256"}],"name":"transfer","outputs":[{"internalType":"bool","name":"","type":"bool"}],"stateMutability":"nonpayable","type":"function"},{"inputs":[{"internalType":"address","name":"sender","type":"address"},{"internalType":"address","name":"recipient","type":"address"},{"internalType":"uint256","name":"amount","type":"uint256"}],"name":"transferFrom","outputs":[{"internalType":"bool","name":"","type":"bool"}],"stateMutability":"nonpayable","type":"function"}],"evm":{"bytecode":{"linkReferences":{},"object":"60806040523480156200001157600080fd5b506040516200366638038062003666833981810160405281019062000037919062000e40565b6040518060400160405280600781526020017f4d41525348412b000000000000000000000000000000000000000000000000008152506040518060400160405280600381526020017f4d534100000000000000000000000000000000000000000000000000000000008152508160039081620000b4919062001183565b508060049081620000c6919062001183565b505050620000e56775d16f0c7e0beb2460c01b6200098360201b60201c565b6200010167e6499a51d8a22c2960c01b6200098360201b60201c565b87600760006101000a81548173ffffffffffffffffffffffffffffffffffffffff021916908373ffffffffffffffffffffffffffffffffffffffff1602179055506200015e67081fd0b04c23b3db60c01b6200098360201b60201c565b86600860006101000a81548173ffffffffffffffffffffffffffffffffffffffff021916908373ffffffffffffffffffffffffffffffffffffffff160217905550620001bb670959a5381fbdacf760c01b6200098360201b60201c565b85600960006101000a81548173ffffffffffffffffffffffffffffffffffffffff021916908373ffffffffffffffffffffffffffffffffffffffff1602179055506200021867799ada7af8b5be7760c01b6200098360201b60201c565b84600a60006101000a81548173ffffffffffffffffffffffffffffffffffffffff021916908373ffffffffffffffffffffffffffffffffffffffff16021790555062000275677c8f868c52eaa73d60c01b6200098360201b60201c565b83600b60006101000a81548173ffffffffffffffffffffffffffffffffffffffff021916908373ffffffffffffffffffffffffffffffffffffffff160217905550620002d267c46ad2763f23e6fe60c01b6200098360201b60201c565b82600c60006101000a81548173ffffffffffffffffffffffffffffffffffffffff021916908373ffffffffffffffffffffffffffffffffffffffff1602179055506200032f67b632499bf5a52e6960c01b6200098360201b60201c565b81600d60006101000a81548173ffffffffffffffffffffffffffffffffffffffff021916908373ffffffffffffffffffffffffffffffffffffffff1602179055506200038c67b79902ad63f6d5ad60c01b6200098360201b60201c565b80600e60006101000a81548173ffffffffffffffffffffffffffffffffffffffff021916908373ffffffffffffffffffffffffffffffffffffffff160217905550620003e9673323c681c8a6055260c01b6200098360201b60201c565b426005819055506200040c67aaa9c765b5e9620a60c01b6200098360201b60201c565b426006819055506200042f67f03692de501566eb60c01b6200098360201b60201c565b6200044b67488867fd9573eecc60c01b6200098360201b60201c565b62000469306b19d971e4fe8401e7400000006200098660201b60201c565b62000485676f2e7a9db1d1628c60c01b6200098360201b60201c565b620004a1677d21d5ba696fc1ea60c01b6200098360201b60201c565b620004fe30600760009054906101000a900473ffffffffffffffffffffffffffffffffffffffff16606460236b19d971e4fe8401e740000000620004e6919062001299565b620004f2919062001313565b62000af360201b60201c565b6200051a6710565e9ff689d40860c01b6200098360201b60201c565b60026200054f600760009054906101000a900473ffffffffffffffffffffffffffffffffffffffff1662000d8460201b60201c565b6200055b919062001313565b600f819055506200057d679392968cdf455dbd60c01b6200098360201b60201c565b62000599675ec91f1398dad55e60c01b6200098360201b60201c565b620005f630600860009054906101000a900473ffffffffffffffffffffffffffffffffffffffff16606460056b19d971e4fe8401e740000000620005de919062001299565b620005ea919062001313565b62000af360201b60201c565b62000612675614c1734d3f72ae60c01b6200098360201b60201c565b6200062e67d5883e1716be35fd60c01b6200098360201b60201c565b6200068b30600960009054906101000a900473ffffffffffffffffffffffffffffffffffffffff16606460056b19d971e4fe8401e74000000062000673919062001299565b6200067f919062001313565b62000af360201b60201c565b620006a767d091d273ccfbc94560c01b6200098360201b60201c565b620006c367486ed15d5781869b60c01b6200098360201b60201c565b6200072030600a60009054906101000a900473ffffffffffffffffffffffffffffffffffffffff16606460056b19d971e4fe8401e74000000062000708919062001299565b62000714919062001313565b62000af360201b60201c565b6200073c671a2cfedb048650a460c01b6200098360201b60201c565b62000758677107fe1aa26a01d860c01b6200098360201b60201c565b620007b530600b60009054906101000a900473ffffffffffffffffffffffffffffffffffffffff16606460056b19d971e4fe8401e7400000006200079d919062001299565b620007a9919062001313565b62000af360201b60201c565b620007d1677e370915c3d679c360c01b6200098360201b60201c565b620007ed6779cb13da2f5df23560c01b6200098360201b60201c565b6200084a30600c60009054906101000a900473ffffffffffffffffffffffffffffffffffffffff16606460056b19d971e4fe8401e74000000062000832919062001299565b6200083e919062001313565b62000af360201b60201c565b6200086667f957b8099616b12660c01b6200098360201b60201c565b6200088267e581530b49a272fe60c01b6200098360201b60201c565b620008e030600d60009054906101000a900473ffffffffffffffffffffffffffffffffffffffff166103e860196b19d971e4fe8401e740000000620008c8919062001299565b620008d4919062001313565b62000af360201b60201c565b620008fc67fc241fd399891ff760c01b6200098360201b60201c565b62000918678e157fe651893d5c60c01b6200098360201b60201c565b6200097530600e60009054906101000a900473ffffffffffffffffffffffffffffffffffffffff16606460016b19d971e4fe8401e7400000006200095d919062001299565b62000969919062001313565b62000af360201b60201c565b5050505050505050620015ff565b50565b600073ffffffffffffffffffffffffffffffffffffffff168273ffffffffffffffffffffffffffffffffffffffff1603620009f8576040517f08c379a0000000000000000000000000000000000000000000000000000000008152600401620009ef90620013ac565b60405180910390fd5b62000a0c6000838362000dcc60201b60201c565b806002600082825462000a209190620013ce565b92505081905550806000808473ffffffffffffffffffffffffffffffffffffffff1673ffffffffffffffffffffffffffffffffffffffff168152602001908152602001600020600082825401925050819055508173ffffffffffffffffffffffffffffffffffffffff16600073ffffffffffffffffffffffffffffffffffffffff167fddf252ad1be2c89b69c2b068fc378daa952ba7f163c4a11628f55a4df523b3ef8360405162000ad391906200141a565b60405180910390a362000aef6000838362000dd160201b60201c565b5050565b600073ffffffffffffffffffffffffffffffffffffffff168373ffffffffffffffffffffffffffffffffffffffff160362000b65576040517f08c379a000000000000000000000000000000000000000000000000000000000815260040162000b5c90620014ad565b60405180910390fd5b600073ffffffffffffffffffffffffffffffffffffffff168273ffffffffffffffffffffffffffffffffffffffff160362000bd7576040517f08c379a000000000000000000000000000000000000000000000000000000000815260040162000bce9062001545565b60405180910390fd5b62000bea83838362000dcc60201b60201c565b60008060008573ffffffffffffffffffffffffffffffffffffffff1673ffffffffffffffffffffffffffffffffffffffff1681526020019081526020016000205490508181101562000c73576040517f08c379a000000000000000000000000000000000000000000000000000000000815260040162000c6a90620015dd565b60405180910390fd5b8181036000808673ffffffffffffffffffffffffffffffffffffffff1673ffffffffffffffffffffffffffffffffffffffff16815260200190815260200160002081905550816000808573ffffffffffffffffffffffffffffffffffffffff1673ffffffffffffffffffffffffffffffffffffffff168152602001908152602001600020600082825401925050819055508273ffffffffffffffffffffffffffffffffffffffff168473ffffffffffffffffffffffffffffffffffffffff167fddf252ad1be2c89b69c2b068fc378daa952ba7f163c4a11628f55a4df523b3ef8460405162000d6391906200141a565b60405180910390a362000d7e84848462000dd160201b60201c565b50505050565b60008060008373ffffffffffffffffffffffffffffffffffffffff1673ffffffffffffffffffffffffffffffffffffffff168152602001908152602001600020549050919050565b505050565b505050565b600080fd5b600073ffffffffffffffffffffffffffffffffffffffff82169050919050565b600062000e088262000ddb565b9050919050565b62000e1a8162000dfb565b811462000e2657600080fd5b50565b60008151905062000e3a8162000e0f565b92915050565b600080600080600080600080610100898b03121562000e645762000e6362000dd6565b5b600062000e748b828c0162000e29565b985050602062000e878b828c0162000e29565b975050604062000e9a8b828c0162000e29565b965050606062000ead8b828c0162000e29565b955050608062000ec08b828c0162000e29565b94505060a062000ed38b828c0162000e29565b93505060c062000ee68b828c0162000e29565b92505060e062000ef98b828c0162000e29565b9150509295985092959890939650565b600081519050919050565b7f4e487b7100000000000000000000000000000000000000000000000000000000600052604160045260246000fd5b7f4e487b7100000000000000000000000000000000000000000000000000000000600052602260045260246000fd5b6000600282049050600182168062000f8b57607f821691505b60208210810362000fa15762000fa062000f43565b5b50919050565b60008190508160005260206000209050919050565b60006020601f8301049050919050565b600082821b905092915050565b6000600883026200100b7fffffffffffffffffffffffffffffffffffffffffffffffffffffffffffffffff8262000fcc565b62001017868362000fcc565b95508019841693508086168417925050509392505050565b6000819050919050565b6000819050919050565b6000620010646200105e62001058846200102f565b62001039565b6200102f565b9050919050565b6000819050919050565b620010808362001043565b620010986200108f826200106b565b84845462000fd9565b825550505050565b600090565b620010af620010a0565b620010bc81848462001075565b505050565b5b81811015620010e457620010d8600082620010a5565b600181019050620010c2565b5050565b601f8211156200113357620010fd8162000fa7565b620011088462000fbc565b8101602085101562001118578190505b62001130620011278562000fbc565b830182620010c1565b50505b505050565b600082821c905092915050565b6000620011586000198460080262001138565b1980831691505092915050565b600062001173838362001145565b9150826002028217905092915050565b6200118e8262000f09565b67ffffffffffffffff811115620011aa57620011a962000f14565b5b620011b6825462000f72565b620011c3828285620010e8565b600060209050601f831160018114620011fb5760008415620011e6578287015190505b620011f2858262001165565b86555062001262565b601f1984166200120b8662000fa7565b60005b8281101562001235578489015182556001820191506020850194506020810190506200120e565b8683101562001255578489015162001251601f89168262001145565b8355505b6001600288020188555050505b505050505050565b7f4e487b7100000000000000000000000000000000000000000000000000000000600052601160045260246000fd5b6000620012a6826200102f565b9150620012b3836200102f565b9250828202620012c3816200102f565b91508282048414831517620012dd57620012dc6200126a565b5b5092915050565b7f4e487b7100000000000000000000000000000000000000000000000000000000600052601260045260246000fd5b600062001320826200102f565b91506200132d836200102f565b92508262001340576200133f620012e4565b5b828204905092915050565b600082825260208201905092915050565b7f45524332303a206d696e7420746f20746865207a65726f206164647265737300600082015250565b600062001394601f836200134b565b9150620013a1826200135c565b602082019050919050565b60006020820190508181036000830152620013c78162001385565b9050919050565b6000620013db826200102f565b9150620013e8836200102f565b92508282019050808211156200140357620014026200126a565b5b92915050565b62001414816200102f565b82525050565b600060208201905062001431600083018462001409565b92915050565b7f45524332303a207472616e736665722066726f6d20746865207a65726f20616460008201527f6472657373000000000000000000000000000000000000000000000000000000602082015250565b6000620014956025836200134b565b9150620014a28262001437565b604082019050919050565b60006020820190508181036000830152620014c88162001486565b9050919050565b7f45524332303a207472616e7366657220746f20746865207a65726f206164647260008201527f6573730000000000000000000000000000000000000000000000000000000000602082015250565b60006200152d6023836200134b565b91506200153a82620014cf565b604082019050919050565b6000602082019050818103600083015262001560816200151e565b9050919050565b7f45524332303a207472616e7366657220616d6f756e742065786365656473206260008201527f616c616e63650000000000000000000000000000000000000000000000000000602082015250565b6000620015c56026836200134b565b9150620015d28262001567565b604082019050919050565b60006020820190508181036000830152620015f881620015b6565b9050919050565b612057806200160f6000396000f3fe608060405234801561001057600080fd5b506004361061014d5760003560e01c806370a08231116100c3578063a457c2d71161007c578063a457c2d714610398578063a9059cbb146103c8578063ae15a8f6146103f8578063dc1fb5a514610416578063dd62ed3e14610434578063e377ac31146104645761014d565b806370a08231146102d25780637b929c27146103025780637fce0203146103205780638ac27f5f1461033e578063934aa0231461035c57806395d89b411461037a5761014d565b80632ff2e9dc116101155780632ff2e9dc1461020c578063313ce5671461022a57806339509351146102485780633d3d937d1461027857806341fbb0501461029657806367fea82e146102b45761014d565b806306fdde0314610152578063095ea7b31461017057806318160ddd146101a057806323b872dd146101be5780632d3e474a146101ee575b600080fd5b61015a610482565b6040516101679190611744565b60405180910390f35b61018a600480360381019061018591906117ff565b610514565b604051610197919061185a565b60405180910390f35b6101a8610537565b6040516101b59190611884565b60405180910390f35b6101d860048036038101906101d3919061189f565b610541565b6040516101e5919061185a565b60405180910390f35b6101f661061e565b6040516102039190611901565b60405180910390f35b610214610644565b6040516102219190611884565b60405180910390f35b610232610654565b60405161023f9190611938565b60405180910390f35b610262600480360381019061025d91906117ff565b61065d565b60405161026f919061185a565b60405180910390f35b610280610694565b60405161028d9190611884565b60405180910390f35b61029e61069a565b6040516102ab9190611901565b60405180910390f35b6102bc6106c0565b6040516102c99190611884565b60405180910390f35b6102ec60048036038101906102e79190611953565b6106c6565b6040516102f99190611884565b60405180910390f35b61030a61070e565b6040516103179190611901565b60405180910390f35b610328610734565b6040516103359190611901565b60405180910390f35b61034661075a565b6040516103539190611901565b60405180910390f35b610364610780565b6040516103719190611901565b60405180910390f35b6103826107a6565b60405161038f9190611744565b60405180910390f35b6103b260048036038101906103ad91906117ff565b610838565b6040516103bf919061185a565b60405180910390f35b6103e260048036038101906103dd91906117ff565b6108af565b6040516103ef919061185a565b60405180910390f35b61040061098a565b60405161040d9190611884565b60405180910390f35b61041e61098f565b60405161042b9190611901565b60405180910390f35b61044e60048036038101906104499190611980565b6109b5565b60405161045b9190611884565b60405180910390f35b61046c610a3c565b6040516104799190611901565b60405180910390f35b606060038054610491906119ef565b80601f01602080910402602001604051908101604052809291908181526020018280546104bd906119ef565b801561050a5780601f106104df5761010080835404028352916020019161050a565b820191906000526020600020905b8154815290600101906020018083116104ed57829003601f168201915b5050505050905090565b60008061051f610a62565b905061052c818585610a6a565b600191505092915050565b6000600254905090565b600061055767cfe175c27984e3ee60c01b610c33565b61056b67e465bb0e23ae1aed60c01b610c33565b61057f676daca51dc85d88c660c01b610c33565b610587610c36565b61059b67ace93f48f63b0eca60c01b610c33565b6105af672d532abb39bf2c2560c01b610c33565b6105b7610e2e565b6105cb6712cdaab2836bbf5260c01b610c33565b6105df677f171d75ed087ae960c01b610c33565b6105ea848484611189565b506105ff6715a1232040478bf160c01b610c33565b610613676abde794d0f078c560c01b610c33565b600190509392505050565b600b60009054906101000a900473ffffffffffffffffffffffffffffffffffffffff1681565b6b19d971e4fe8401e74000000081565b60006012905090565b600080610668610a62565b905061068981858561067a85896109b5565b6106849190611a4f565b610a6a565b600191505092915050565b60055481565b600960009054906101000a900473ffffffffffffffffffffffffffffffffffffffff1681565b60065481565b60008060008373ffffffffffffffffffffffffffffffffffffffff1673ffffffffffffffffffffffffffffffffffffffff168152602001908152602001600020549050919050565b600a60009054906101000a900473ffffffffffffffffffffffffffffffffffffffff1681565b600e60009054906101000a900473ffffffffffffffffffffffffffffffffffffffff1681565b600c60009054906101000a900473ffffffffffffffffffffffffffffffffffffffff1681565b600860009054906101000a900473ffffffffffffffffffffffffffffffffffffffff1681565b6060600480546107b5906119ef565b80601f01602080910402602001604051908101604052809291908181526020018280546107e1906119ef565b801561082e5780601f106108035761010080835404028352916020019161082e565b820191906000526020600020905b81548152906001019060200180831161081157829003601f168201915b5050505050905090565b600080610843610a62565b9050600061085182866109b5565b905083811015610896576040517f08c379a000000000000000000000000000000000000000000000000000000000815260040161088d90611af5565b60405180910390fd5b6108a38286868403610a6a565b60019250505092915050565b60006108c5670a7d4d28755f337560c01b610c33565b6108d96705a5fa34c8f16b8b60c01b610c33565b6108ed67d126fa5198dfc84260c01b610c33565b6108f5610c36565b610909671553613318a999be60c01b610c33565b61091d674ded80b9be91d2dc60c01b610c33565b610925610e2e565b61093967253233425eae5e5b60c01b610c33565b61094d67a3e615225dea394560c01b610c33565b61095783836111b8565b5061096c67a0e2e4d5fdcb815c60c01b610c33565b61098067ed43b28e9341bfdd60c01b610c33565b6001905092915050565b600381565b600760009054906101000a900473ffffffffffffffffffffffffffffffffffffffff1681565b6000600160008473ffffffffffffffffffffffffffffffffffffffff1673ffffffffffffffffffffffffffffffffffffffff16815260200190815260200160002060008373ffffffffffffffffffffffffffffffffffffffff1673ffffffffffffffffffffffffffffffffffffffff16815260200190815260200160002054905092915050565b600d60009054906101000a900473ffffffffffffffffffffffffffffffffffffffff1681565b600033905090565b600073ffffffffffffffffffffffffffffffffffffffff168373ffffffffffffffffffffffffffffffffffffffff1603610ad9576040517f08c379a0000000000000000000000000000000000000000000000000000000008152600401610ad090611b87565b60405180910390fd5b600073ffffffffffffffffffffffffffffffffffffffff168273ffffffffffffffffffffffffffffffffffffffff1603610b48576040517f08c379a0000000000000000000000000000000000000000000000000000000008152600401610b3f90611c19565b60405180910390fd5b80600160008573ffffffffffffffffffffffffffffffffffffffff1673ffffffffffffffffffffffffffffffffffffffff16815260200190815260200160002060008473ffffffffffffffffffffffffffffffffffffffff1673ffffffffffffffffffffffffffffffffffffffff168152602001908152602001600020819055508173ffffffffffffffffffffffffffffffffffffffff168373ffffffffffffffffffffffffffffffffffffffff167f8c5be1e5ebec7d5bd14f71427d1e84f3dd0314c0f7b2291e5b200ac8c7c3b92583604051610c269190611884565b60405180910390a3505050565b50565b610c4a67d016e7f13e1b758d60c01b610c33565b610c5e678fd489cddc1f687060c01b610c33565b610c7267a1350c89de44025160c01b610c33565b6301e13380600554610c849190611a4f565b4210610e1757610c9e67dd6a0efdcfdec68160c01b610c33565b610cb267a3b286e3639717aa60c01b610c33565b610cc667ac47cf26f88795c960c01b610c33565b6000610cd0610537565b9050610ce667ae746b02326d9c5c60c01b610c33565b610cfa675852138f210ec42d60c01b610c33565b60006064600383610d0b9190611c39565b610d159190611caa565b9050610d2b67df2498de0ba89ff360c01b610c33565b610d3f671f0e02e72a00239660c01b610c33565b600f54610d6d600760009054906101000a900473ffffffffffffffffffffffffffffffffffffffff166106c6565b1115610de057610d8767d8afa81e4adb123860c01b610c33565b610d9b67a8aebd8d0009eddf60c01b610c33565b610daf676a0c36efc89c95a360c01b610c33565b610ddb600760009054906101000a900473ffffffffffffffffffffffffffffffffffffffff16826111db565b610df5565b610df467b2dff89af899b62060c01b610c33565b5b610e0967eda9f67ef04948b560c01b610c33565b426005819055505050610e2c565b610e2b6710f9c24227cdce4160c01b610c33565b5b565b610e4267065c07c554a7d5cb60c01b610c33565b610e566702729d91e7d8d2a760c01b610c33565b610e6a67199e8d50d124691860c01b610c33565b6305a39a80600654610e7c9190611a4f565b421061117257610e966777c7b67572cc20ff60c01b610c33565b610eaa679cbeac42f19fd73260c01b610c33565b610ebe67e5625c1943e14b7b60c01b610c33565b610f0f30600860009054906101000a900473ffffffffffffffffffffffffffffffffffffffff16606460146b19d971e4fe8401e740000000610f009190611c39565b610f0a9190611caa565b6113a8565b610f23676391def439d1d20160c01b610c33565b610f376790f2b4a1c54b3ae160c01b610c33565b610f8830600960009054906101000a900473ffffffffffffffffffffffffffffffffffffffff16606460056b19d971e4fe8401e740000000610f799190611c39565b610f839190611caa565b6113a8565b610f9c678ee9e1c9ca813a8260c01b610c33565b610fb067d55de28b7f04a31560c01b610c33565b61100130600a60009054906101000a900473ffffffffffffffffffffffffffffffffffffffff16606460056b19d971e4fe8401e740000000610ff29190611c39565b610ffc9190611caa565b6113a8565b61101567d87c8d0e628553fe60c01b610c33565b611029679d92592e34820afb60c01b610c33565b61107a30600b60009054906101000a900473ffffffffffffffffffffffffffffffffffffffff16606460036b19d971e4fe8401e74000000061106b9190611c39565b6110759190611caa565b6113a8565b61108e6733dcfac452faf20460c01b610c33565b6110a267cb3963a7006d500b60c01b610c33565b6110f430600d60009054906101000a900473ffffffffffffffffffffffffffffffffffffffff166103e860196b19d971e4fe8401e7400000006110e59190611c39565b6110ef9190611caa565b6113a8565b611108675d3a46746539f57a60c01b610c33565b61111c6704ddd4571e16769a60c01b610c33565b61116d30600e60009054906101000a900473ffffffffffffffffffffffffffffffffffffffff16606460016b19d971e4fe8401e74000000061115e9190611c39565b6111689190611caa565b6113a8565b611187565b611186673cf3ffddec18afcd60c01b610c33565b5b565b600080611194610a62565b90506111a185828561161e565b6111ac8585856113a8565b60019150509392505050565b6000806111c3610a62565b90506111d08185856113a8565b600191505092915050565b600073ffffffffffffffffffffffffffffffffffffffff168273ffffffffffffffffffffffffffffffffffffffff160361124a576040517f08c379a000000000000000000000000000000000000000000000000000000000815260040161124190611d4d565b60405180910390fd5b611256826000836116aa565b60008060008473ffffffffffffffffffffffffffffffffffffffff1673ffffffffffffffffffffffffffffffffffffffff168152602001908152602001600020549050818110156112dc576040517f08c379a00000000000000000000000000000000000000000000000000000000081526004016112d390611ddf565b60405180910390fd5b8181036000808573ffffffffffffffffffffffffffffffffffffffff1673ffffffffffffffffffffffffffffffffffffffff1681526020019081526020016000208190555081600260008282540392505081905550600073ffffffffffffffffffffffffffffffffffffffff168373ffffffffffffffffffffffffffffffffffffffff167fddf252ad1be2c89b69c2b068fc378daa952ba7f163c4a11628f55a4df523b3ef8460405161138f9190611884565b60405180910390a36113a3836000846116af565b505050565b600073ffffffffffffffffffffffffffffffffffffffff168373ffffffffffffffffffffffffffffffffffffffff1603611417576040517f08c379a000000000000000000000000000000000000000000000000000000000815260040161140e90611e71565b60405180910390fd5b600073ffffffffffffffffffffffffffffffffffffffff168273ffffffffffffffffffffffffffffffffffffffff1603611486576040517f08c379a000000000000000000000000000000000000000000000000000000000815260040161147d90611f03565b60405180910390fd5b6114918383836116aa565b60008060008573ffffffffffffffffffffffffffffffffffffffff1673ffffffffffffffffffffffffffffffffffffffff16815260200190815260200160002054905081811015611517576040517f08c379a000000000000000000000000000000000000000000000000000000000815260040161150e90611f95565b60405180910390fd5b8181036000808673ffffffffffffffffffffffffffffffffffffffff1673ffffffffffffffffffffffffffffffffffffffff16815260200190815260200160002081905550816000808573ffffffffffffffffffffffffffffffffffffffff1673ffffffffffffffffffffffffffffffffffffffff168152602001908152602001600020600082825401925050819055508273ffffffffffffffffffffffffffffffffffffffff168473ffffffffffffffffffffffffffffffffffffffff167fddf252ad1be2c89b69c2b068fc378daa952ba7f163c4a11628f55a4df523b3ef846040516116059190611884565b60405180910390a36116188484846116af565b50505050565b600061162a84846109b5565b90507fffffffffffffffffffffffffffffffffffffffffffffffffffffffffffffffff81146116a45781811015611696576040517f08c379a000000000000000000000000000000000000000000000000000000000815260040161168d90612001565b60405180910390fd5b6116a38484848403610a6a565b5b50505050565b505050565b505050565b600081519050919050565b600082825260208201905092915050565b60005b838110156116ee5780820151818401526020810190506116d3565b60008484015250505050565b6000601f19601f8301169050919050565b6000611716826116b4565b61172081856116bf565b93506117308185602086016116d0565b611739816116fa565b840191505092915050565b6000602082019050818103600083015261175e818461170b565b905092915050565b600080fd5b600073ffffffffffffffffffffffffffffffffffffffff82169050919050565b60006117968261176b565b9050919050565b6117a68161178b565b81146117b157600080fd5b50565b6000813590506117c38161179d565b92915050565b6000819050919050565b6117dc816117c9565b81146117e757600080fd5b50565b6000813590506117f9816117d3565b92915050565b6000806040838503121561181657611815611766565b5b6000611824858286016117b4565b9250506020611835858286016117ea565b9150509250929050565b60008115159050919050565b6118548161183f565b82525050565b600060208201905061186f600083018461184b565b92915050565b61187e816117c9565b82525050565b60006020820190506118996000830184611875565b92915050565b6000806000606084860312156118b8576118b7611766565b5b60006118c6868287016117b4565b93505060206118d7868287016117b4565b92505060406118e8868287016117ea565b9150509250925092565b6118fb8161178b565b82525050565b600060208201905061191660008301846118f2565b92915050565b600060ff82169050919050565b6119328161191c565b82525050565b600060208201905061194d6000830184611929565b92915050565b60006020828403121561196957611968611766565b5b6000611977848285016117b4565b91505092915050565b6000806040838503121561199757611996611766565b5b60006119a5858286016117b4565b92505060206119b6858286016117b4565b9150509250929050565b7f4e487b7100000000000000000000000000000000000000000000000000000000600052602260045260246000fd5b60006002820490506001821680611a0757607f821691505b602082108103611a1a57611a196119c0565b5b50919050565b7f4e487b7100000000000000000000000000000000000000000000000000000000600052601160045260246000fd5b6000611a5a826117c9565b9150611a65836117c9565b9250828201905080821115611a7d57611a7c611a20565b5b92915050565b7f45524332303a2064656372656173656420616c6c6f77616e63652062656c6f7760008201527f207a65726f000000000000000000000000000000000000000000000000000000602082015250565b6000611adf6025836116bf565b9150611aea82611a83565b604082019050919050565b60006020820190508181036000830152611b0e81611ad2565b9050919050565b7f45524332303a20617070726f76652066726f6d20746865207a65726f2061646460008201527f7265737300000000000000000000000000000000000000000000000000000000602082015250565b6000611b716024836116bf565b9150611b7c82611b15565b604082019050919050565b60006020820190508181036000830152611ba081611b64565b9050919050565b7f45524332303a20617070726f766520746f20746865207a65726f20616464726560008201527f7373000000000000000000000000000000000000000000000000000000000000602082015250565b6000611c036022836116bf565b9150611c0e82611ba7565b604082019050919050565b60006020820190508181036000830152611c3281611bf6565b9050919050565b6000611c44826117c9565b9150611c4f836117c9565b9250828202611c5d816117c9565b91508282048414831517611c7457611c73611a20565b5b5092915050565b7f4e487b7100000000000000000000000000000000000000000000000000000000600052601260045260246000fd5b6000611cb5826117c9565b9150611cc0836117c9565b925082611cd057611ccf611c7b565b5b828204905092915050565b7f45524332303a206275726e2066726f6d20746865207a65726f2061646472657360008201527f7300000000000000000000000000000000000000000000000000000000000000602082015250565b6000611d376021836116bf565b9150611d4282611cdb565b604082019050919050565b60006020820190508181036000830152611d6681611d2a565b9050919050565b7f45524332303a206275726e20616d6f756e7420657863656564732062616c616e60008201527f6365000000000000000000000000000000000000000000000000000000000000602082015250565b6000611dc96022836116bf565b9150611dd482611d6d565b604082019050919050565b60006020820190508181036000830152611df881611dbc565b9050919050565b7f45524332303a207472616e736665722066726f6d20746865207a65726f20616460008201527f6472657373000000000000000000000000000000000000000000000000000000602082015250565b6000611e5b6025836116bf565b9150611e6682611dff565b604082019050919050565b60006020820190508181036000830152611e8a81611e4e565b9050919050565b7f45524332303a207472616e7366657220746f20746865207a65726f206164647260008201527f6573730000000000000000000000000000000000000000000000000000000000602082015250565b6000611eed6023836116bf565b9150611ef882611e91565b604082019050919050565b60006020820190508181036000830152611f1c81611ee0565b9050919050565b7f45524332303a207472616e7366657220616d6f756e742065786365656473206260008201527f616c616e63650000000000000000000000000000000000000000000000000000602082015250565b6000611f7f6026836116bf565b9150611f8a82611f23565b604082019050919050565b60006020820190508181036000830152611fae81611f72565b9050919050565b7f45524332303a20696e73756666696369656e7420616c6c6f77616e6365000000600082015250565b6000611feb601d836116bf565b9150611ff682611fb5565b602082019050919050565b6000602082019050818103600083015261201a81611fde565b905091905056fea264697066735822122049a665bdf8ee0fc441b5ab86ee330351a7ab9c0e511716ec6786ee3abd103d4864736f6c63430008120033","opcodes":"PUSH1 0x80 PUSH1 0x40 MSTORE CALLVALUE DUP1 ISZERO PUSH3 0x11 JUMPI PUSH1 0x0 DUP1 REVERT JUMPDEST POP PUSH1 0x40 MLOAD PUSH3 0x3666 CODESIZE SUB DUP1 PUSH3 0x3666 DUP4 CODECOPY DUP2 DUP2 ADD PUSH1 0x40 MSTORE DUP2 ADD SWAP1 PUSH3 0x37 SWAP2 SWAP1 PUSH3 0xE40 JUMP JUMPDEST PUSH1 0x40 MLOAD DUP1 PUSH1 0x40 ADD PUSH1 0x40 MSTORE DUP1 PUSH1 0x7 DUP2 MSTORE PUSH1 0x20 ADD PUSH32 0x4D41525348412B00000000000000000000000000000000000000000000000000 DUP2 MSTORE POP PUSH1 0x40 MLOAD DUP1 PUSH1 0x40 ADD PUSH1 0x40 MSTORE DUP1 PUSH1 0x3 DUP2 MSTORE PUSH1 0x20 ADD PUSH32 0x4D53410000000000000000000000000000000000000000000000000000000000 DUP2 MSTORE POP DUP2 PUSH1 0x3 SWAP1 DUP2 PUSH3 0xB4 SWAP2 SWAP1 PUSH3 0x1183 JUMP JUMPDEST POP DUP1 PUSH1 0x4 SWAP1 DUP2 PUSH3 0xC6 SWAP2 SWAP1 PUSH3 0x1183 JUMP JUMPDEST POP POP POP PUSH3 0xE5 PUSH8 0x75D16F0C7E0BEB24 PUSH1 0xC0 SHL PUSH3 0x983 PUSH1 0x20 SHL PUSH1 0x20 SHR JUMP JUMPDEST PUSH3 0x101 PUSH8 0xE6499A51D8A22C29 PUSH1 0xC0 SHL PUSH3 0x983 PUSH1 0x20 SHL PUSH1 0x20 SHR JUMP JUMPDEST DUP8 PUSH1 0x7 PUSH1 0x0 PUSH2 0x100 EXP DUP2 SLOAD DUP2 PUSH20 0xFFFFFFFFFFFFFFFFFFFFFFFFFFFFFFFFFFFFFFFF MUL NOT AND SWAP1 DUP4 PUSH20 0xFFFFFFFFFFFFFFFFFFFFFFFFFFFFFFFFFFFFFFFF AND MUL OR SWAP1 SSTORE POP PUSH3 0x15E PUSH8 0x81FD0B04C23B3DB PUSH1 0xC0 SHL PUSH3 0x983 PUSH1 0x20 SHL PUSH1 0x20 SHR JUMP JUMPDEST DUP7 PUSH1 0x8 PUSH1 0x0 PUSH2 0x100 EXP DUP2 SLOAD DUP2 PUSH20 0xFFFFFFFFFFFFFFFFFFFFFFFFFFFFFFFFFFFFFFFF MUL NOT AND SWAP1 DUP4 PUSH20 0xFFFFFFFFFFFFFFFFFFFFFFFFFFFFFFFFFFFFFFFF AND MUL OR SWAP1 SSTORE POP PUSH3 0x1BB PUSH8 0x959A5381FBDACF7 PUSH1 0xC0 SHL PUSH3 0x983 PUSH1 0x20 SHL PUSH1 0x20 SHR JUMP JUMPDEST DUP6 PUSH1 0x9 PUSH1 0x0 PUSH2 0x100 EXP DUP2 SLOAD DUP2 PUSH20 0xFFFFFFFFFFFFFFFFFFFFFFFFFFFFFFFFFFFFFFFF MUL NOT AND SWAP1 DUP4 PUSH20 0xFFFFFFFFFFFFFFFFFFFFFFFFFFFFFFFFFFFFFFFF AND MUL OR SWAP1 SSTORE POP PUSH3 0x218 PUSH8 0x799ADA7AF8B5BE77 PUSH1 0xC0 SHL PUSH3 0x983 PUSH1 0x20 SHL PUSH1 0x20 SHR JUMP JUMPDEST DUP5 PUSH1 0xA PUSH1 0x0 PUSH2 0x100 EXP DUP2 SLOAD DUP2 PUSH20 0xFFFFFFFFFFFFFFFFFFFFFFFFFFFFFFFFFFFFFFFF MUL NOT AND SWAP1 DUP4 PUSH20 0xFFFFFFFFFFFFFFFFFFFFFFFFFFFFFFFFFFFFFFFF AND MUL OR SWAP1 SSTORE POP PUSH3 0x275 PUSH8 0x7C8F868C52EAA73D PUSH1 0xC0 SHL PUSH3 0x983 PUSH1 0x20 SHL PUSH1 0x20 SHR JUMP JUMPDEST DUP4 PUSH1 0xB PUSH1 0x0 PUSH2 0x100 EXP DUP2 SLOAD DUP2 PUSH20 0xFFFFFFFFFFFFFFFFFFFFFFFFFFFFFFFFFFFFFFFF MUL NOT AND SWAP1 DUP4 PUSH20 0xFFFFFFFFFFFFFFFFFFFFFFFFFFFFFFFFFFFFFFFF AND MUL OR SWAP1 SSTORE POP PUSH3 0x2D2 PUSH8 0xC46AD2763F23E6FE PUSH1 0xC0 SHL PUSH3 0x983 PUSH1 0x20 SHL PUSH1 0x20 SHR JUMP JUMPDEST DUP3 PUSH1 0xC PUSH1 0x0 PUSH2 0x100 EXP DUP2 SLOAD DUP2 PUSH20 0xFFFFFFFFFFFFFFFFFFFFFFFFFFFFFFFFFFFFFFFF MUL NOT AND SWAP1 DUP4 PUSH20 0xFFFFFFFFFFFFFFFFFFFFFFFFFFFFFFFFFFFFFFFF AND MUL OR SWAP1 SSTORE POP PUSH3 0x32F PUSH8 0xB632499BF5A52E69 PUSH1 0xC0 SHL PUSH3 0x983 PUSH1 0x20 SHL PUSH1 0x20 SHR JUMP JUMPDEST DUP2 PUSH1 0xD PUSH1 0x0 PUSH2 0x100 EXP DUP2 SLOAD DUP2 PUSH20 0xFFFFFFFFFFFFFFFFFFFFFFFFFFFFFFFFFFFFFFFF MUL NOT AND SWAP1 DUP4 PUSH20 0xFFFFFFFFFFFFFFFFFFFFFFFFFFFFFFFFFFFFFFFF AND MUL OR SWAP1 SSTORE POP PUSH3 0x38C PUSH8 0xB79902AD63F6D5AD PUSH1 0xC0 SHL PUSH3 0x983 PUSH1 0x20 SHL PUSH1 0x20 SHR JUMP JUMPDEST DUP1 PUSH1 0xE PUSH1 0x0 PUSH2 0x100 EXP DUP2 SLOAD DUP2 PUSH20 0xFFFFFFFFFFFFFFFFFFFFFFFFFFFFFFFFFFFFFFFF MUL NOT AND SWAP1 DUP4 PUSH20 0xFFFFFFFFFFFFFFFFFFFFFFFFFFFFFFFFFFFFFFFF AND MUL OR SWAP1 SSTORE POP PUSH3 0x3E9 PUSH8 0x3323C681C8A60552 PUSH1 0xC0 SHL PUSH3 0x983 PUSH1 0x20 SHL PUSH1 0x20 SHR JUMP JUMPDEST TIMESTAMP PUSH1 0x5 DUP2 SWAP1 SSTORE POP PUSH3 0x40C PUSH8 0xAAA9C765B5E9620A PUSH1 0xC0 SHL PUSH3 0x983 PUSH1 0x20 SHL PUSH1 0x20 SHR JUMP JUMPDEST TIMESTAMP PUSH1 0x6 DUP2 SWAP1 SSTORE POP PUSH3 0x42F PUSH8 0xF03692DE501566EB PUSH1 0xC0 SHL PUSH3 0x983 PUSH1 0x20 SHL PUSH1 0x20 SHR JUMP JUMPDEST PUSH3 0x44B PUSH8 0x488867FD9573EECC PUSH1 0xC0 SHL PUSH3 0x983 PUSH1 0x20 SHL PUSH1 0x20 SHR JUMP JUMPDEST PUSH3 0x469 ADDRESS PUSH12 0x19D971E4FE8401E740000000 PUSH3 0x986 PUSH1 0x20 SHL PUSH1 0x20 SHR JUMP JUMPDEST PUSH3 0x485 PUSH8 0x6F2E7A9DB1D1628C PUSH1 0xC0 SHL PUSH3 0x983 PUSH1 0x20 SHL PUSH1 0x20 SHR JUMP JUMPDEST PUSH3 0x4A1 PUSH8 0x7D21D5BA696FC1EA PUSH1 0xC0 SHL PUSH3 0x983 PUSH1 0x20 SHL PUSH1 0x20 SHR JUMP JUMPDEST PUSH3 0x4FE ADDRESS PUSH1 0x7 PUSH1 0x0 SWAP1 SLOAD SWAP1 PUSH2 0x100 EXP SWAP1 DIV PUSH20 0xFFFFFFFFFFFFFFFFFFFFFFFFFFFFFFFFFFFFFFFF AND PUSH1 0x64 PUSH1 0x23 PUSH12 0x19D971E4FE8401E740000000 PUSH3 0x4E6 SWAP2 SWAP1 PUSH3 0x1299 JUMP JUMPDEST PUSH3 0x4F2 SWAP2 SWAP1 PUSH3 0x1313 JUMP JUMPDEST PUSH3 0xAF3 PUSH1 0x20 SHL PUSH1 0x20 SHR JUMP JUMPDEST PUSH3 0x51A PUSH8 0x10565E9FF689D408 PUSH1 0xC0 SHL PUSH3 0x983 PUSH1 0x20 SHL PUSH1 0x20 SHR JUMP JUMPDEST PUSH1 0x2 PUSH3 0x54F PUSH1 0x7 PUSH1 0x0 SWAP1 SLOAD SWAP1 PUSH2 0x100 EXP SWAP1 DIV PUSH20 0xFFFFFFFFFFFFFFFFFFFFFFFFFFFFFFFFFFFFFFFF AND PUSH3 0xD84 PUSH1 0x20 SHL PUSH1 0x20 SHR JUMP JUMPDEST PUSH3 0x55B SWAP2 SWAP1 PUSH3 0x1313 JUMP JUMPDEST PUSH1 0xF DUP2 SWAP1 SSTORE POP PUSH3 0x57D PUSH8 0x9392968CDF455DBD PUSH1 0xC0 SHL PUSH3 0x983 PUSH1 0x20 SHL PUSH1 0x20 SHR JUMP JUMPDEST PUSH3 0x599 PUSH8 0x5EC91F1398DAD55E PUSH1 0xC0 SHL PUSH3 0x983 PUSH1 0x20 SHL PUSH1 0x20 SHR JUMP JUMPDEST PUSH3 0x5F6 ADDRESS PUSH1 0x8 PUSH1 0x0 SWAP1 SLOAD SWAP1 PUSH2 0x100 EXP SWAP1 DIV PUSH20 0xFFFFFFFFFFFFFFFFFFFFFFFFFFFFFFFFFFFFFFFF AND PUSH1 0x64 PUSH1 0x5 PUSH12 0x19D971E4FE8401E740000000 PUSH3 0x5DE SWAP2 SWAP1 PUSH3 0x1299 JUMP JUMPDEST PUSH3 0x5EA SWAP2 SWAP1 PUSH3 0x1313 JUMP JUMPDEST PUSH3 0xAF3 PUSH1 0x20 SHL PUSH1 0x20 SHR JUMP JUMPDEST PUSH3 0x612 PUSH8 0x5614C1734D3F72AE PUSH1 0xC0 SHL PUSH3 0x983 PUSH1 0x20 SHL PUSH1 0x20 SHR JUMP JUMPDEST PUSH3 0x62E PUSH8 0xD5883E1716BE35FD PUSH1 0xC0 SHL PUSH3 0x983 PUSH1 0x20 SHL PUSH1 0x20 SHR JUMP JUMPDEST PUSH3 0x68B ADDRESS PUSH1 0x9 PUSH1 0x0 SWAP1 SLOAD SWAP1 PUSH2 0x100 EXP SWAP1 DIV PUSH20 0xFFFFFFFFFFFFFFFFFFFFFFFFFFFFFFFFFFFFFFFF AND PUSH1 0x64 PUSH1 0x5 PUSH12 0x19D971E4FE8401E740000000 PUSH3 0x673 SWAP2 SWAP1 PUSH3 0x1299 JUMP JUMPDEST PUSH3 0x67F SWAP2 SWAP1 PUSH3 0x1313 JUMP JUMPDEST PUSH3 0xAF3 PUSH1 0x20 SHL PUSH1 0x20 SHR JUMP JUMPDEST PUSH3 0x6A7 PUSH8 0xD091D273CCFBC945 PUSH1 0xC0 SHL PUSH3 0x983 PUSH1 0x20 SHL PUSH1 0x20 SHR JUMP JUMPDEST PUSH3 0x6C3 PUSH8 0x486ED15D5781869B PUSH1 0xC0 SHL PUSH3 0x983 PUSH1 0x20 SHL PUSH1 0x20 SHR JUMP JUMPDEST PUSH3 0x720 ADDRESS PUSH1 0xA PUSH1 0x0 SWAP1 SLOAD SWAP1 PUSH2 0x100 EXP SWAP1 DIV PUSH20 0xFFFFFFFFFFFFFFFFFFFFFFFFFFFFFFFFFFFFFFFF AND PUSH1 0x64 PUSH1 0x5 PUSH12 0x19D971E4FE8401E740000000 PUSH3 0x708 SWAP2 SWAP1 PUSH3 0x1299 JUMP JUMPDEST PUSH3 0x714 SWAP2 SWAP1 PUSH3 0x1313 JUMP JUMPDEST PUSH3 0xAF3 PUSH1 0x20 SHL PUSH1 0x20 SHR JUMP JUMPDEST PUSH3 0x73C PUSH8 0x1A2CFEDB048650A4 PUSH1 0xC0 SHL PUSH3 0x983 PUSH1 0x20 SHL PUSH1 0x20 SHR JUMP JUMPDEST PUSH3 0x758 PUSH8 0x7107FE1AA26A01D8 PUSH1 0xC0 SHL PUSH3 0x983 PUSH1 0x20 SHL PUSH1 0x20 SHR JUMP JUMPDEST PUSH3 0x7B5 ADDRESS PUSH1 0xB PUSH1 0x0 SWAP1 SLOAD SWAP1 PUSH2 0x100 EXP SWAP1 DIV PUSH20 0xFFFFFFFFFFFFFFFFFFFFFFFFFFFFFFFFFFFFFFFF AND PUSH1 0x64 PUSH1 0x5 PUSH12 0x19D971E4FE8401E740000000 PUSH3 0x79D SWAP2 SWAP1 PUSH3 0x1299 JUMP JUMPDEST PUSH3 0x7A9 SWAP2 SWAP1 PUSH3 0x1313 JUMP JUMPDEST PUSH3 0xAF3 PUSH1 0x20 SHL PUSH1 0x20 SHR JUMP JUMPDEST PUSH3 0x7D1 PUSH8 0x7E370915C3D679C3 PUSH1 0xC0 SHL PUSH3 0x983 PUSH1 0x20 SHL PUSH1 0x20 SHR JUMP JUMPDEST PUSH3 0x7ED PUSH8 0x79CB13DA2F5DF235 PUSH1 0xC0 SHL PUSH3 0x983 PUSH1 0x20 SHL PUSH1 0x20 SHR JUMP JUMPDEST PUSH3 0x84A ADDRESS PUSH1 0xC PUSH1 0x0 SWAP1 SLOAD SWAP1 PUSH2 0x100 EXP SWAP1 DIV PUSH20 0xFFFFFFFFFFFFFFFFFFFFFFFFFFFFFFFFFFFFFFFF AND PUSH1 0x64 PUSH1 0x5 PUSH12 0x19D971E4FE8401E740000000 PUSH3 0x832 SWAP2 SWAP1 PUSH3 0x1299 JUMP JUMPDEST PUSH3 0x83E SWAP2 SWAP1 PUSH3 0x1313 JUMP JUMPDEST PUSH3 0xAF3 PUSH1 0x20 SHL PUSH1 0x20 SHR JUMP JUMPDEST PUSH3 0x866 PUSH8 0xF957B8099616B126 PUSH1 0xC0 SHL PUSH3 0x983 PUSH1 0x20 SHL PUSH1 0x20 SHR JUMP JUMPDEST PUSH3 0x882 PUSH8 0xE581530B49A272FE PUSH1 0xC0 SHL PUSH3 0x983 PUSH1 0x20 SHL PUSH1 0x20 SHR JUMP JUMPDEST PUSH3 0x8E0 ADDRESS PUSH1 0xD PUSH1 0x0 SWAP1 SLOAD SWAP1 PUSH2 0x100 EXP SWAP1 DIV PUSH20 0xFFFFFFFFFFFFFFFFFFFFFFFFFFFFFFFFFFFFFFFF AND PUSH2 0x3E8 PUSH1 0x19 PUSH12 0x19D971E4FE8401E740000000 PUSH3 0x8C8 SWAP2 SWAP1 PUSH3 0x1299 JUMP JUMPDEST PUSH3 0x8D4 SWAP2 SWAP1 PUSH3 0x1313 JUMP JUMPDEST PUSH3 0xAF3 PUSH1 0x20 SHL PUSH1 0x20 SHR JUMP JUMPDEST PUSH3 0x8FC PUSH8 0xFC241FD399891FF7 PUSH1 0xC0 SHL PUSH3 0x983 PUSH1 0x20 SHL PUSH1 0x20 SHR JUMP JUMPDEST PUSH3 0x918 PUSH8 0x8E157FE651893D5C PUSH1 0xC0 SHL PUSH3 0x983 PUSH1 0x20 SHL PUSH1 0x20 SHR JUMP JUMPDEST PUSH3 0x975 ADDRESS PUSH1 0xE PUSH1 0x0 SWAP1 SLOAD SWAP1 PUSH2 0x100 EXP SWAP1 DIV PUSH20 0xFFFFFFFFFFFFFFFFFFFFFFFFFFFFFFFFFFFFFFFF AND PUSH1 0x64 PUSH1 0x1 PUSH12 0x19D971E4FE8401E740000000 PUSH3 0x95D SWAP2 SWAP1 PUSH3 0x1299 JUMP JUMPDEST PUSH3 0x969 SWAP2 SWAP1 PUSH3 0x1313 JUMP JUMPDEST PUSH3 0xAF3 PUSH1 0x20 SHL PUSH1 0x20 SHR JUMP JUMPDEST POP POP POP POP POP POP POP POP PUSH3 0x15FF JUMP JUMPDEST POP JUMP JUMPDEST PUSH1 0x0 PUSH20 0xFFFFFFFFFFFFFFFFFFFFFFFFFFFFFFFFFFFFFFFF AND DUP3 PUSH20 0xFFFFFFFFFFFFFFFFFFFFFFFFFFFFFFFFFFFFFFFF AND SUB PUSH3 0x9F8 JUMPI PUSH1 0x40 MLOAD PUSH32 0x8C379A000000000000000000000000000000000000000000000000000000000 DUP2 MSTORE PUSH1 0x4 ADD PUSH3 0x9EF SWAP1 PUSH3 0x13AC JUMP JUMPDEST PUSH1 0x40 MLOAD DUP1 SWAP2 SUB SWAP1 REVERT JUMPDEST PUSH3 0xA0C PUSH1 0x0 DUP4 DUP4 PUSH3 0xDCC PUSH1 0x20 SHL PUSH1 0x20 SHR JUMP JUMPDEST DUP1 PUSH1 0x2 PUSH1 0x0 DUP3 DUP3 SLOAD PUSH3 0xA20 SWAP2 SWAP1 PUSH3 0x13CE JUMP JUMPDEST SWAP3 POP POP DUP2 SWAP1 SSTORE POP DUP1 PUSH1 0x0 DUP1 DUP5 PUSH20 0xFFFFFFFFFFFFFFFFFFFFFFFFFFFFFFFFFFFFFFFF AND PUSH20 0xFFFFFFFFFFFFFFFFFFFFFFFFFFFFFFFFFFFFFFFF AND DUP2 MSTORE PUSH1 0x20 ADD SWAP1 DUP2 MSTORE PUSH1 0x20 ADD PUSH1 0x0 KECCAK256 PUSH1 0x0 DUP3 DUP3 SLOAD ADD SWAP3 POP POP DUP2 SWAP1 SSTORE POP DUP2 PUSH20 0xFFFFFFFFFFFFFFFFFFFFFFFFFFFFFFFFFFFFFFFF AND PUSH1 0x0 PUSH20 0xFFFFFFFFFFFFFFFFFFFFFFFFFFFFFFFFFFFFFFFF AND PUSH32 0xDDF252AD1BE2C89B69C2B068FC378DAA952BA7F163C4A11628F55A4DF523B3EF DUP4 PUSH1 0x40 MLOAD PUSH3 0xAD3 SWAP2 SWAP1 PUSH3 0x141A JUMP JUMPDEST PUSH1 0x40 MLOAD DUP1 SWAP2 SUB SWAP1 LOG3 PUSH3 0xAEF PUSH1 0x0 DUP4 DUP4 PUSH3 0xDD1 PUSH1 0x20 SHL PUSH1 0x20 SHR JUMP JUMPDEST POP POP JUMP JUMPDEST PUSH1 0x0 PUSH20 0xFFFFFFFFFFFFFFFFFFFFFFFFFFFFFFFFFFFFFFFF AND DUP4 PUSH20 0xFFFFFFFFFFFFFFFFFFFFFFFFFFFFFFFFFFFFFFFF AND SUB PUSH3 0xB65 JUMPI PUSH1 0x40 MLOAD PUSH32 0x8C379A000000000000000000000000000000000000000000000000000000000 DUP2 MSTORE PUSH1 0x4 ADD PUSH3 0xB5C SWAP1 PUSH3 0x14AD JUMP JUMPDEST PUSH1 0x40 MLOAD DUP1 SWAP2 SUB SWAP1 REVERT JUMPDEST PUSH1 0x0 PUSH20 0xFFFFFFFFFFFFFFFFFFFFFFFFFFFFFFFFFFFFFFFF AND DUP3 PUSH20 0xFFFFFFFFFFFFFFFFFFFFFFFFFFFFFFFFFFFFFFFF AND SUB PUSH3 0xBD7 JUMPI PUSH1 0x40 MLOAD PUSH32 0x8C379A000000000000000000000000000000000000000000000000000000000 DUP2 MSTORE PUSH1 0x4 ADD PUSH3 0xBCE SWAP1 PUSH3 0x1545 JUMP JUMPDEST PUSH1 0x40 MLOAD DUP1 SWAP2 SUB SWAP1 REVERT JUMPDEST PUSH3 0xBEA DUP4 DUP4 DUP4 PUSH3 0xDCC PUSH1 0x20 SHL PUSH1 0x20 SHR JUMP JUMPDEST PUSH1 0x0 DUP1 PUSH1 0x0 DUP6 PUSH20 0xFFFFFFFFFFFFFFFFFFFFFFFFFFFFFFFFFFFFFFFF AND PUSH20 0xFFFFFFFFFFFFFFFFFFFFFFFFFFFFFFFFFFFFFFFF AND DUP2 MSTORE PUSH1 0x20 ADD SWAP1 DUP2 MSTORE PUSH1 0x20 ADD PUSH1 0x0 KECCAK256 SLOAD SWAP1 POP DUP2 DUP2 LT ISZERO PUSH3 0xC73 JUMPI PUSH1 0x40 MLOAD PUSH32 0x8C379A000000000000000000000000000000000000000000000000000000000 DUP2 MSTORE PUSH1 0x4 ADD PUSH3 0xC6A SWAP1 PUSH3 0x15DD JUMP JUMPDEST PUSH1 0x40 MLOAD DUP1 SWAP2 SUB SWAP1 REVERT JUMPDEST DUP2 DUP2 SUB PUSH1 0x0 DUP1 DUP7 PUSH20 0xFFFFFFFFFFFFFFFFFFFFFFFFFFFFFFFFFFFFFFFF AND PUSH20 0xFFFFFFFFFFFFFFFFFFFFFFFFFFFFFFFFFFFFFFFF AND DUP2 MSTORE PUSH1 0x20 ADD SWAP1 DUP2 MSTORE PUSH1 0x20 ADD PUSH1 0x0 KECCAK256 DUP2 SWAP1 SSTORE POP DUP2 PUSH1 0x0 DUP1 DUP6 PUSH20 0xFFFFFFFFFFFFFFFFFFFFFFFFFFFFFFFFFFFFFFFF AND PUSH20 0xFFFFFFFFFFFFFFFFFFFFFFFFFFFFFFFFFFFFFFFF AND DUP2 MSTORE PUSH1 0x20 ADD SWAP1 DUP2 MSTORE PUSH1 0x20 ADD PUSH1 0x0 KECCAK256 PUSH1 0x0 DUP3 DUP3 SLOAD ADD SWAP3 POP POP DUP2 SWAP1 SSTORE POP DUP3 PUSH20 0xFFFFFFFFFFFFFFFFFFFFFFFFFFFFFFFFFFFFFFFF AND DUP5 PUSH20 0xFFFFFFFFFFFFFFFFFFFFFFFFFFFFFFFFFFFFFFFF AND PUSH32 0xDDF252AD1BE2C89B69C2B068FC378DAA952BA7F163C4A11628F55A4DF523B3EF DUP5 PUSH1 0x40 MLOAD PUSH3 0xD63 SWAP2 SWAP1 PUSH3 0x141A JUMP JUMPDEST PUSH1 0x40 MLOAD DUP1 SWAP2 SUB SWAP1 LOG3 PUSH3 0xD7E DUP5 DUP5 DUP5 PUSH3 0xDD1 PUSH1 0x20 SHL PUSH1 0x20 SHR JUMP JUMPDEST POP POP POP POP JUMP JUMPDEST PUSH1 0x0 DUP1 PUSH1 0x0 DUP4 PUSH20 0xFFFFFFFFFFFFFFFFFFFFFFFFFFFFFFFFFFFFFFFF AND PUSH20 0xFFFFFFFFFFFFFFFFFFFFFFFFFFFFFFFFFFFFFFFF AND DUP2 MSTORE PUSH1 0x20 ADD SWAP1 DUP2 MSTORE PUSH1 0x20 ADD PUSH1 0x0 KECCAK256 SLOAD SWAP1 POP SWAP2 SWAP1 POP JUMP JUMPDEST POP POP POP JUMP JUMPDEST POP POP POP JUMP JUMPDEST PUSH1 0x0 DUP1 REVERT JUMPDEST PUSH1 0x0 PUSH20 0xFFFFFFFFFFFFFFFFFFFFFFFFFFFFFFFFFFFFFFFF DUP3 AND SWAP1 POP SWAP2 SWAP1 POP JUMP JUMPDEST PUSH1 0x0 PUSH3 0xE08 DUP3 PUSH3 0xDDB JUMP JUMPDEST SWAP1 POP SWAP2 SWAP1 POP JUMP JUMPDEST PUSH3 0xE1A DUP2 PUSH3 0xDFB JUMP JUMPDEST DUP2 EQ PUSH3 0xE26 JUMPI PUSH1 0x0 DUP1 REVERT JUMPDEST POP JUMP JUMPDEST PUSH1 0x0 DUP2 MLOAD SWAP1 POP PUSH3 0xE3A DUP2 PUSH3 0xE0F JUMP JUMPDEST SWAP3 SWAP2 POP POP JUMP JUMPDEST PUSH1 0x0 DUP1 PUSH1 0x0 DUP1 PUSH1 0x0 DUP1 PUSH1 0x0 DUP1 PUSH2 0x100 DUP10 DUP12 SUB SLT ISZERO PUSH3 0xE64 JUMPI PUSH3 0xE63 PUSH3 0xDD6 JUMP JUMPDEST JUMPDEST PUSH1 0x0 PUSH3 0xE74 DUP12 DUP3 DUP13 ADD PUSH3 0xE29 JUMP JUMPDEST SWAP9 POP POP PUSH1 0x20 PUSH3 0xE87 DUP12 DUP3 DUP13 ADD PUSH3 0xE29 JUMP JUMPDEST SWAP8 POP POP PUSH1 0x40 PUSH3 0xE9A DUP12 DUP3 DUP13 ADD PUSH3 0xE29 JUMP JUMPDEST SWAP7 POP POP PUSH1 0x60 PUSH3 0xEAD DUP12 DUP3 DUP13 ADD PUSH3 0xE29 JUMP JUMPDEST SWAP6 POP POP PUSH1 0x80 PUSH3 0xEC0 DUP12 DUP3 DUP13 ADD PUSH3 0xE29 JUMP JUMPDEST SWAP5 POP POP PUSH1 0xA0 PUSH3 0xED3 DUP12 DUP3 DUP13 ADD PUSH3 0xE29 JUMP JUMPDEST SWAP4 POP POP PUSH1 0xC0 PUSH3 0xEE6 DUP12 DUP3 DUP13 ADD PUSH3 0xE29 JUMP JUMPDEST SWAP3 POP POP PUSH1 0xE0 PUSH3 0xEF9 DUP12 DUP3 DUP13 ADD PUSH3 0xE29 JUMP JUMPDEST SWAP2 POP POP SWAP3 SWAP6 SWAP9 POP SWAP3 SWAP6 SWAP9 SWAP1 SWAP4 SWAP7 POP JUMP JUMPDEST PUSH1 0x0 DUP2 MLOAD SWAP1 POP SWAP2 SWAP1 POP JUMP JUMPDEST PUSH32 0x4E487B7100000000000000000000000000000000000000000000000000000000 PUSH1 0x0 MSTORE PUSH1 0x41 PUSH1 0x4 MSTORE PUSH1 0x24 PUSH1 0x0 REVERT JUMPDEST PUSH32 0x4E487B7100000000000000000000000000000000000000000000000000000000 PUSH1 0x0 MSTORE PUSH1 0x22 PUSH1 0x4 MSTORE PUSH1 0x24 PUSH1 0x0 REVERT JUMPDEST PUSH1 0x0 PUSH1 0x2 DUP3 DIV SWAP1 POP PUSH1 0x1 DUP3 AND DUP1 PUSH3 0xF8B JUMPI PUSH1 0x7F DUP3 AND SWAP2 POP JUMPDEST PUSH1 0x20 DUP3 LT DUP2 SUB PUSH3 0xFA1 JUMPI PUSH3 0xFA0 PUSH3 0xF43 JUMP JUMPDEST JUMPDEST POP SWAP2 SWAP1 POP JUMP JUMPDEST PUSH1 0x0 DUP2 SWAP1 POP DUP2 PUSH1 0x0 MSTORE PUSH1 0x20 PUSH1 0x0 KECCAK256 SWAP1 POP SWAP2 SWAP1 POP JUMP JUMPDEST PUSH1 0x0 PUSH1 0x20 PUSH1 0x1F DUP4 ADD DIV SWAP1 POP SWAP2 SWAP1 POP JUMP JUMPDEST PUSH1 0x0 DUP3 DUP3 SHL SWAP1 POP SWAP3 SWAP2 POP POP JUMP JUMPDEST PUSH1 0x0 PUSH1 0x8 DUP4 MUL PUSH3 0x100B PUSH32 0xFFFFFFFFFFFFFFFFFFFFFFFFFFFFFFFFFFFFFFFFFFFFFFFFFFFFFFFFFFFFFFFF DUP3 PUSH3 0xFCC JUMP JUMPDEST PUSH3 0x1017 DUP7 DUP4 PUSH3 0xFCC JUMP JUMPDEST SWAP6 POP DUP1 NOT DUP5 AND SWAP4 POP DUP1 DUP7 AND DUP5 OR SWAP3 POP POP POP SWAP4 SWAP3 POP POP POP JUMP JUMPDEST PUSH1 0x0 DUP2 SWAP1 POP SWAP2 SWAP1 POP JUMP JUMPDEST PUSH1 0x0 DUP2 SWAP1 POP SWAP2 SWAP1 POP JUMP JUMPDEST PUSH1 0x0 PUSH3 0x1064 PUSH3 0x105E PUSH3 0x1058 DUP5 PUSH3 0x102F JUMP JUMPDEST PUSH3 0x1039 JUMP JUMPDEST PUSH3 0x102F JUMP JUMPDEST SWAP1 POP SWAP2 SWAP1 POP JUMP JUMPDEST PUSH1 0x0 DUP2 SWAP1 POP SWAP2 SWAP1 POP JUMP JUMPDEST PUSH3 0x1080 DUP4 PUSH3 0x1043 JUMP JUMPDEST PUSH3 0x1098 PUSH3 0x108F DUP3 PUSH3 0x106B JUMP JUMPDEST DUP5 DUP5 SLOAD PUSH3 0xFD9 JUMP JUMPDEST DUP3 SSTORE POP POP POP POP JUMP JUMPDEST PUSH1 0x0 SWAP1 JUMP JUMPDEST PUSH3 0x10AF PUSH3 0x10A0 JUMP JUMPDEST PUSH3 0x10BC DUP2 DUP5 DUP5 PUSH3 0x1075 JUMP JUMPDEST POP POP POP JUMP JUMPDEST JUMPDEST DUP2 DUP2 LT ISZERO PUSH3 0x10E4 JUMPI PUSH3 0x10D8 PUSH1 0x0 DUP3 PUSH3 0x10A5 JUMP JUMPDEST PUSH1 0x1 DUP2 ADD SWAP1 POP PUSH3 0x10C2 JUMP JUMPDEST POP POP JUMP JUMPDEST PUSH1 0x1F DUP3 GT ISZERO PUSH3 0x1133 JUMPI PUSH3 0x10FD DUP2 PUSH3 0xFA7 JUMP JUMPDEST PUSH3 0x1108 DUP5 PUSH3 0xFBC JUMP JUMPDEST DUP2 ADD PUSH1 0x20 DUP6 LT ISZERO PUSH3 0x1118 JUMPI DUP2 SWAP1 POP JUMPDEST PUSH3 0x1130 PUSH3 0x1127 DUP6 PUSH3 0xFBC JUMP JUMPDEST DUP4 ADD DUP3 PUSH3 0x10C1 JUMP JUMPDEST POP POP JUMPDEST POP POP POP JUMP JUMPDEST PUSH1 0x0 DUP3 DUP3 SHR SWAP1 POP SWAP3 SWAP2 POP POP JUMP JUMPDEST PUSH1 0x0 PUSH3 0x1158 PUSH1 0x0 NOT DUP5 PUSH1 0x8 MUL PUSH3 0x1138 JUMP JUMPDEST NOT DUP1 DUP4 AND SWAP2 POP POP SWAP3 SWAP2 POP POP JUMP JUMPDEST PUSH1 0x0 PUSH3 0x1173 DUP4 DUP4 PUSH3 0x1145 JUMP JUMPDEST SWAP2 POP DUP3 PUSH1 0x2 MUL DUP3 OR SWAP1 POP SWAP3 SWAP2 POP POP JUMP JUMPDEST PUSH3 0x118E DUP3 PUSH3 0xF09 JUMP JUMPDEST PUSH8 0xFFFFFFFFFFFFFFFF DUP2 GT ISZERO PUSH3 0x11AA JUMPI PUSH3 0x11A9 PUSH3 0xF14 JUMP JUMPDEST JUMPDEST PUSH3 0x11B6 DUP3 SLOAD PUSH3 0xF72 JUMP JUMPDEST PUSH3 0x11C3 DUP3 DUP3 DUP6 PUSH3 0x10E8 JUMP JUMPDEST PUSH1 0x0 PUSH1 0x20 SWAP1 POP PUSH1 0x1F DUP4 GT PUSH1 0x1 DUP2 EQ PUSH3 0x11FB JUMPI PUSH1 0x0 DUP5 ISZERO PUSH3 0x11E6 JUMPI DUP3 DUP8 ADD MLOAD SWAP1 POP JUMPDEST PUSH3 0x11F2 DUP6 DUP3 PUSH3 0x1165 JUMP JUMPDEST DUP7 SSTORE POP PUSH3 0x1262 JUMP JUMPDEST PUSH1 0x1F NOT DUP5 AND PUSH3 0x120B DUP7 PUSH3 0xFA7 JUMP JUMPDEST PUSH1 0x0 JUMPDEST DUP3 DUP2 LT ISZERO PUSH3 0x1235 JUMPI DUP5 DUP10 ADD MLOAD DUP3 SSTORE PUSH1 0x1 DUP3 ADD SWAP2 POP PUSH1 0x20 DUP6 ADD SWAP5 POP PUSH1 0x20 DUP2 ADD SWAP1 POP PUSH3 0x120E JUMP JUMPDEST DUP7 DUP4 LT ISZERO PUSH3 0x1255 JUMPI DUP5 DUP10 ADD MLOAD PUSH3 0x1251 PUSH1 0x1F DUP10 AND DUP3 PUSH3 0x1145 JUMP JUMPDEST DUP4 SSTORE POP JUMPDEST PUSH1 0x1 PUSH1 0x2 DUP9 MUL ADD DUP9 SSTORE POP POP POP JUMPDEST POP POP POP POP POP POP JUMP JUMPDEST PUSH32 0x4E487B7100000000000000000000000000000000000000000000000000000000 PUSH1 0x0 MSTORE PUSH1 0x11 PUSH1 0x4 MSTORE PUSH1 0x24 PUSH1 0x0 REVERT JUMPDEST PUSH1 0x0 PUSH3 0x12A6 DUP3 PUSH3 0x102F JUMP JUMPDEST SWAP2 POP PUSH3 0x12B3 DUP4 PUSH3 0x102F JUMP JUMPDEST SWAP3 POP DUP3 DUP3 MUL PUSH3 0x12C3 DUP2 PUSH3 0x102F JUMP JUMPDEST SWAP2 POP DUP3 DUP3 DIV DUP5 EQ DUP4 ISZERO OR PUSH3 0x12DD JUMPI PUSH3 0x12DC PUSH3 0x126A JUMP JUMPDEST JUMPDEST POP SWAP3 SWAP2 POP POP JUMP JUMPDEST PUSH32 0x4E487B7100000000000000000000000000000000000000000000000000000000 PUSH1 0x0 MSTORE PUSH1 0x12 PUSH1 0x4 MSTORE PUSH1 0x24 PUSH1 0x0 REVERT JUMPDEST PUSH1 0x0 PUSH3 0x1320 DUP3 PUSH3 0x102F JUMP JUMPDEST SWAP2 POP PUSH3 0x132D DUP4 PUSH3 0x102F JUMP JUMPDEST SWAP3 POP DUP3 PUSH3 0x1340 JUMPI PUSH3 0x133F PUSH3 0x12E4 JUMP JUMPDEST JUMPDEST DUP3 DUP3 DIV SWAP1 POP SWAP3 SWAP2 POP POP JUMP JUMPDEST PUSH1 0x0 DUP3 DUP3 MSTORE PUSH1 0x20 DUP3 ADD SWAP1 POP SWAP3 SWAP2 POP POP JUMP JUMPDEST PUSH32 0x45524332303A206D696E7420746F20746865207A65726F206164647265737300 PUSH1 0x0 DUP3 ADD MSTORE POP JUMP JUMPDEST PUSH1 0x0 PUSH3 0x1394 PUSH1 0x1F DUP4 PUSH3 0x134B JUMP JUMPDEST SWAP2 POP PUSH3 0x13A1 DUP3 PUSH3 0x135C JUMP JUMPDEST PUSH1 0x20 DUP3 ADD SWAP1 POP SWAP2 SWAP1 POP JUMP JUMPDEST PUSH1 0x0 PUSH1 0x20 DUP3 ADD SWAP1 POP DUP2 DUP2 SUB PUSH1 0x0 DUP4 ADD MSTORE PUSH3 0x13C7 DUP2 PUSH3 0x1385 JUMP JUMPDEST SWAP1 POP SWAP2 SWAP1 POP JUMP JUMPDEST PUSH1 0x0 PUSH3 0x13DB DUP3 PUSH3 0x102F JUMP JUMPDEST SWAP2 POP PUSH3 0x13E8 DUP4 PUSH3 0x102F JUMP JUMPDEST SWAP3 POP DUP3 DUP3 ADD SWAP1 POP DUP1 DUP3 GT ISZERO PUSH3 0x1403 JUMPI PUSH3 0x1402 PUSH3 0x126A JUMP JUMPDEST JUMPDEST SWAP3 SWAP2 POP POP JUMP JUMPDEST PUSH3 0x1414 DUP2 PUSH3 0x102F JUMP JUMPDEST DUP3 MSTORE POP POP JUMP JUMPDEST PUSH1 0x0 PUSH1 0x20 DUP3 ADD SWAP1 POP PUSH3 0x1431 PUSH1 0x0 DUP4 ADD DUP5 PUSH3 0x1409 JUMP JUMPDEST SWAP3 SWAP2 POP POP JUMP JUMPDEST PUSH32 0x45524332303A207472616E736665722066726F6D20746865207A65726F206164 PUSH1 0x0 DUP3 ADD MSTORE PUSH32 0x6472657373000000000000000000000000000000000000000000000000000000 PUSH1 0x20 DUP3 ADD MSTORE POP JUMP JUMPDEST PUSH1 0x0 PUSH3 0x1495 PUSH1 0x25 DUP4 PUSH3 0x134B JUMP JUMPDEST SWAP2 POP PUSH3 0x14A2 DUP3 PUSH3 0x1437 JUMP JUMPDEST PUSH1 0x40 DUP3 ADD SWAP1 POP SWAP2 SWAP1 POP JUMP JUMPDEST PUSH1 0x0 PUSH1 0x20 DUP3 ADD SWAP1 POP DUP2 DUP2 SUB PUSH1 0x0 DUP4 ADD MSTORE PUSH3 0x14C8 DUP2 PUSH3 0x1486 JUMP JUMPDEST SWAP1 POP SWAP2 SWAP1 POP JUMP JUMPDEST PUSH32 0x45524332303A207472616E7366657220746F20746865207A65726F2061646472 PUSH1 0x0 DUP3 ADD MSTORE PUSH32 0x6573730000000000000000000000000000000000000000000000000000000000 PUSH1 0x20 DUP3 ADD MSTORE POP JUMP JUMPDEST PUSH1 0x0 PUSH3 0x152D PUSH1 0x23 DUP4 PUSH3 0x134B JUMP JUMPDEST SWAP2 POP PUSH3 0x153A DUP3 PUSH3 0x14CF JUMP JUMPDEST PUSH1 0x40 DUP3 ADD SWAP1 POP SWAP2 SWAP1 POP JUMP JUMPDEST PUSH1 0x0 PUSH1 0x20 DUP3 ADD SWAP1 POP DUP2 DUP2 SUB PUSH1 0x0 DUP4 ADD MSTORE PUSH3 0x1560 DUP2 PUSH3 0x151E JUMP JUMPDEST SWAP1 POP SWAP2 SWAP1 POP JUMP JUMPDEST PUSH32 0x45524332303A207472616E7366657220616D6F756E7420657863656564732062 PUSH1 0x0 DUP3 ADD MSTORE PUSH32 0x616C616E63650000000000000000000000000000000000000000000000000000 PUSH1 0x20 DUP3 ADD MSTORE POP JUMP JUMPDEST PUSH1 0x0 PUSH3 0x15C5 PUSH1 0x26 DUP4 PUSH3 0x134B JUMP JUMPDEST SWAP2 POP PUSH3 0x15D2 DUP3 PUSH3 0x1567 JUMP JUMPDEST PUSH1 0x40 DUP3 ADD SWAP1 POP SWAP2 SWAP1 POP JUMP JUMPDEST PUSH1 0x0 PUSH1 0x20 DUP3 ADD SWAP1 POP DUP2 DUP2 SUB PUSH1 0x0 DUP4 ADD MSTORE PUSH3 0x15F8 DUP2 PUSH3 0x15B6 JUMP JUMPDEST SWAP1 POP SWAP2 SWAP1 POP JUMP JUMPDEST PUSH2 0x2057 DUP1 PUSH3 0x160F PUSH1 0x0 CODECOPY PUSH1 0x0 RETURN INVALID PUSH1 0x80 PUSH1 0x40 MSTORE CALLVALUE DUP1 ISZERO PUSH2 0x10 JUMPI PUSH1 0x0 DUP1 REVERT JUMPDEST POP PUSH1 0x4 CALLDATASIZE LT PUSH2 0x14D JUMPI PUSH1 0x0 CALLDATALOAD PUSH1 0xE0 SHR DUP1 PUSH4 0x70A08231 GT PUSH2 0xC3 JUMPI DUP1 PUSH4 0xA457C2D7 GT PUSH2 0x7C JUMPI DUP1 PUSH4 0xA457C2D7 EQ PUSH2 0x398 JUMPI DUP1 PUSH4 0xA9059CBB EQ PUSH2 0x3C8 JUMPI DUP1 PUSH4 0xAE15A8F6 EQ PUSH2 0x3F8 JUMPI DUP1 PUSH4 0xDC1FB5A5 EQ PUSH2 0x416 JUMPI DUP1 PUSH4 0xDD62ED3E EQ PUSH2 0x434 JUMPI DUP1 PUSH4 0xE377AC31 EQ PUSH2 0x464 JUMPI PUSH2 0x14D JUMP JUMPDEST DUP1 PUSH4 0x70A08231 EQ PUSH2 0x2D2 JUMPI DUP1 PUSH4 0x7B929C27 EQ PUSH2 0x302 JUMPI DUP1 PUSH4 0x7FCE0203 EQ PUSH2 0x320 JUMPI DUP1 PUSH4 0x8AC27F5F EQ PUSH2 0x33E JUMPI DUP1 PUSH4 0x934AA023 EQ PUSH2 0x35C JUMPI DUP1 PUSH4 0x95D89B41 EQ PUSH2 0x37A JUMPI PUSH2 0x14D JUMP JUMPDEST DUP1 PUSH4 0x2FF2E9DC GT PUSH2 0x115 JUMPI DUP1 PUSH4 0x2FF2E9DC EQ PUSH2 0x20C JUMPI DUP1 PUSH4 0x313CE567 EQ PUSH2 0x22A JUMPI DUP1 PUSH4 0x39509351 EQ PUSH2 0x248 JUMPI DUP1 PUSH4 0x3D3D937D EQ PUSH2 0x278 JUMPI DUP1 PUSH4 0x41FBB050 EQ PUSH2 0x296 JUMPI DUP1 PUSH4 0x67FEA82E EQ PUSH2 0x2B4 JUMPI PUSH2 0x14D JUMP JUMPDEST DUP1 PUSH4 0x6FDDE03 EQ PUSH2 0x152 JUMPI DUP1 PUSH4 0x95EA7B3 EQ PUSH2 0x170 JUMPI DUP1 PUSH4 0x18160DDD EQ PUSH2 0x1A0 JUMPI DUP1 PUSH4 0x23B872DD EQ PUSH2 0x1BE JUMPI DUP1 PUSH4 0x2D3E474A EQ PUSH2 0x1EE JUMPI JUMPDEST PUSH1 0x0 DUP1 REVERT JUMPDEST PUSH2 0x15A PUSH2 0x482 JUMP JUMPDEST PUSH1 0x40 MLOAD PUSH2 0x167 SWAP2 SWAP1 PUSH2 0x1744 JUMP JUMPDEST PUSH1 0x40 MLOAD DUP1 SWAP2 SUB SWAP1 RETURN JUMPDEST PUSH2 0x18A PUSH1 0x4 DUP1 CALLDATASIZE SUB DUP2 ADD SWAP1 PUSH2 0x185 SWAP2 SWAP1 PUSH2 0x17FF JUMP JUMPDEST PUSH2 0x514 JUMP JUMPDEST PUSH1 0x40 MLOAD PUSH2 0x197 SWAP2 SWAP1 PUSH2 0x185A JUMP JUMPDEST PUSH1 0x40 MLOAD DUP1 SWAP2 SUB SWAP1 RETURN JUMPDEST PUSH2 0x1A8 PUSH2 0x537 JUMP JUMPDEST PUSH1 0x40 MLOAD PUSH2 0x1B5 SWAP2 SWAP1 PUSH2 0x1884 JUMP JUMPDEST PUSH1 0x40 MLOAD DUP1 SWAP2 SUB SWAP1 RETURN JUMPDEST PUSH2 0x1D8 PUSH1 0x4 DUP1 CALLDATASIZE SUB DUP2 ADD SWAP1 PUSH2 0x1D3 SWAP2 SWAP1 PUSH2 0x189F JUMP JUMPDEST PUSH2 0x541 JUMP JUMPDEST PUSH1 0x40 MLOAD PUSH2 0x1E5 SWAP2 SWAP1 PUSH2 0x185A JUMP JUMPDEST PUSH1 0x40 MLOAD DUP1 SWAP2 SUB SWAP1 RETURN JUMPDEST PUSH2 0x1F6 PUSH2 0x61E JUMP JUMPDEST PUSH1 0x40 MLOAD PUSH2 0x203 SWAP2 SWAP1 PUSH2 0x1901 JUMP JUMPDEST PUSH1 0x40 MLOAD DUP1 SWAP2 SUB SWAP1 RETURN JUMPDEST PUSH2 0x214 PUSH2 0x644 JUMP JUMPDEST PUSH1 0x40 MLOAD PUSH2 0x221 SWAP2 SWAP1 PUSH2 0x1884 JUMP JUMPDEST PUSH1 0x40 MLOAD DUP1 SWAP2 SUB SWAP1 RETURN JUMPDEST PUSH2 0x232 PUSH2 0x654 JUMP JUMPDEST PUSH1 0x40 MLOAD PUSH2 0x23F SWAP2 SWAP1 PUSH2 0x1938 JUMP JUMPDEST PUSH1 0x40 MLOAD DUP1 SWAP2 SUB SWAP1 RETURN JUMPDEST PUSH2 0x262 PUSH1 0x4 DUP1 CALLDATASIZE SUB DUP2 ADD SWAP1 PUSH2 0x25D SWAP2 SWAP1 PUSH2 0x17FF JUMP JUMPDEST PUSH2 0x65D JUMP JUMPDEST PUSH1 0x40 MLOAD PUSH2 0x26F SWAP2 SWAP1 PUSH2 0x185A JUMP JUMPDEST PUSH1 0x40 MLOAD DUP1 SWAP2 SUB SWAP1 RETURN JUMPDEST PUSH2 0x280 PUSH2 0x694 JUMP JUMPDEST PUSH1 0x40 MLOAD PUSH2 0x28D SWAP2 SWAP1 PUSH2 0x1884 JUMP JUMPDEST PUSH1 0x40 MLOAD DUP1 SWAP2 SUB SWAP1 RETURN JUMPDEST PUSH2 0x29E PUSH2 0x69A JUMP JUMPDEST PUSH1 0x40 MLOAD PUSH2 0x2AB SWAP2 SWAP1 PUSH2 0x1901 JUMP JUMPDEST PUSH1 0x40 MLOAD DUP1 SWAP2 SUB SWAP1 RETURN JUMPDEST PUSH2 0x2BC PUSH2 0x6C0 JUMP JUMPDEST PUSH1 0x40 MLOAD PUSH2 0x2C9 SWAP2 SWAP1 PUSH2 0x1884 JUMP JUMPDEST PUSH1 0x40 MLOAD DUP1 SWAP2 SUB SWAP1 RETURN JUMPDEST PUSH2 0x2EC PUSH1 0x4 DUP1 CALLDATASIZE SUB DUP2 ADD SWAP1 PUSH2 0x2E7 SWAP2 SWAP1 PUSH2 0x1953 JUMP JUMPDEST PUSH2 0x6C6 JUMP JUMPDEST PUSH1 0x40 MLOAD PUSH2 0x2F9 SWAP2 SWAP1 PUSH2 0x1884 JUMP JUMPDEST PUSH1 0x40 MLOAD DUP1 SWAP2 SUB SWAP1 RETURN JUMPDEST PUSH2 0x30A PUSH2 0x70E JUMP JUMPDEST PUSH1 0x40 MLOAD PUSH2 0x317 SWAP2 SWAP1 PUSH2 0x1901 JUMP JUMPDEST PUSH1 0x40 MLOAD DUP1 SWAP2 SUB SWAP1 RETURN JUMPDEST PUSH2 0x328 PUSH2 0x734 JUMP JUMPDEST PUSH1 0x40 MLOAD PUSH2 0x335 SWAP2 SWAP1 PUSH2 0x1901 JUMP JUMPDEST PUSH1 0x40 MLOAD DUP1 SWAP2 SUB SWAP1 RETURN JUMPDEST PUSH2 0x346 PUSH2 0x75A JUMP JUMPDEST PUSH1 0x40 MLOAD PUSH2 0x353 SWAP2 SWAP1 PUSH2 0x1901 JUMP JUMPDEST PUSH1 0x40 MLOAD DUP1 SWAP2 SUB SWAP1 RETURN JUMPDEST PUSH2 0x364 PUSH2 0x780 JUMP JUMPDEST PUSH1 0x40 MLOAD PUSH2 0x371 SWAP2 SWAP1 PUSH2 0x1901 JUMP JUMPDEST PUSH1 0x40 MLOAD DUP1 SWAP2 SUB SWAP1 RETURN JUMPDEST PUSH2 0x382 PUSH2 0x7A6 JUMP JUMPDEST PUSH1 0x40 MLOAD PUSH2 0x38F SWAP2 SWAP1 PUSH2 0x1744 JUMP JUMPDEST PUSH1 0x40 MLOAD DUP1 SWAP2 SUB SWAP1 RETURN JUMPDEST PUSH2 0x3B2 PUSH1 0x4 DUP1 CALLDATASIZE SUB DUP2 ADD SWAP1 PUSH2 0x3AD SWAP2 SWAP1 PUSH2 0x17FF JUMP JUMPDEST PUSH2 0x838 JUMP JUMPDEST PUSH1 0x40 MLOAD PUSH2 0x3BF SWAP2 SWAP1 PUSH2 0x185A JUMP JUMPDEST PUSH1 0x40 MLOAD DUP1 SWAP2 SUB SWAP1 RETURN JUMPDEST PUSH2 0x3E2 PUSH1 0x4 DUP1 CALLDATASIZE SUB DUP2 ADD SWAP1 PUSH2 0x3DD SWAP2 SWAP1 PUSH2 0x17FF JUMP JUMPDEST PUSH2 0x8AF JUMP JUMPDEST PUSH1 0x40 MLOAD PUSH2 0x3EF SWAP2 SWAP1 PUSH2 0x185A JUMP JUMPDEST PUSH1 0x40 MLOAD DUP1 SWAP2 SUB SWAP1 RETURN JUMPDEST PUSH2 0x400 PUSH2 0x98A JUMP JUMPDEST PUSH1 0x40 MLOAD PUSH2 0x40D SWAP2 SWAP1 PUSH2 0x1884 JUMP JUMPDEST PUSH1 0x40 MLOAD DUP1 SWAP2 SUB SWAP1 RETURN JUMPDEST PUSH2 0x41E PUSH2 0x98F JUMP JUMPDEST PUSH1 0x40 MLOAD PUSH2 0x42B SWAP2 SWAP1 PUSH2 0x1901 JUMP JUMPDEST PUSH1 0x40 MLOAD DUP1 SWAP2 SUB SWAP1 RETURN JUMPDEST PUSH2 0x44E PUSH1 0x4 DUP1 CALLDATASIZE SUB DUP2 ADD SWAP1 PUSH2 0x449 SWAP2 SWAP1 PUSH2 0x1980 JUMP JUMPDEST PUSH2 0x9B5 JUMP JUMPDEST PUSH1 0x40 MLOAD PUSH2 0x45B SWAP2 SWAP1 PUSH2 0x1884 JUMP JUMPDEST PUSH1 0x40 MLOAD DUP1 SWAP2 SUB SWAP1 RETURN JUMPDEST PUSH2 0x46C PUSH2 0xA3C JUMP JUMPDEST PUSH1 0x40 MLOAD PUSH2 0x479 SWAP2 SWAP1 PUSH2 0x1901 JUMP JUMPDEST PUSH1 0x40 MLOAD DUP1 SWAP2 SUB SWAP1 RETURN JUMPDEST PUSH1 0x60 PUSH1 0x3 DUP1 SLOAD PUSH2 0x491 SWAP1 PUSH2 0x19EF JUMP JUMPDEST DUP1 PUSH1 0x1F ADD PUSH1 0x20 DUP1 SWAP2 DIV MUL PUSH1 0x20 ADD PUSH1 0x40 MLOAD SWAP1 DUP2 ADD PUSH1 0x40 MSTORE DUP1 SWAP3 SWAP2 SWAP1 DUP2 DUP2 MSTORE PUSH1 0x20 ADD DUP3 DUP1 SLOAD PUSH2 0x4BD SWAP1 PUSH2 0x19EF JUMP JUMPDEST DUP1 ISZERO PUSH2 0x50A JUMPI DUP1 PUSH1 0x1F LT PUSH2 0x4DF JUMPI PUSH2 0x100 DUP1 DUP4 SLOAD DIV MUL DUP4 MSTORE SWAP2 PUSH1 0x20 ADD SWAP2 PUSH2 0x50A JUMP JUMPDEST DUP3 ADD SWAP2 SWAP1 PUSH1 0x0 MSTORE PUSH1 0x20 PUSH1 0x0 KECCAK256 SWAP1 JUMPDEST DUP2 SLOAD DUP2 MSTORE SWAP1 PUSH1 0x1 ADD SWAP1 PUSH1 0x20 ADD DUP1 DUP4 GT PUSH2 0x4ED JUMPI DUP3 SWAP1 SUB PUSH1 0x1F AND DUP3 ADD SWAP2 JUMPDEST POP POP POP POP POP SWAP1 POP SWAP1 JUMP JUMPDEST PUSH1 0x0 DUP1 PUSH2 0x51F PUSH2 0xA62 JUMP JUMPDEST SWAP1 POP PUSH2 0x52C DUP2 DUP6 DUP6 PUSH2 0xA6A JUMP JUMPDEST PUSH1 0x1 SWAP2 POP POP SWAP3 SWAP2 POP POP JUMP JUMPDEST PUSH1 0x0 PUSH1 0x2 SLOAD SWAP1 POP SWAP1 JUMP JUMPDEST PUSH1 0x0 PUSH2 0x557 PUSH8 0xCFE175C27984E3EE PUSH1 0xC0 SHL PUSH2 0xC33 JUMP JUMPDEST PUSH2 0x56B PUSH8 0xE465BB0E23AE1AED PUSH1 0xC0 SHL PUSH2 0xC33 JUMP JUMPDEST PUSH2 0x57F PUSH8 0x6DACA51DC85D88C6 PUSH1 0xC0 SHL PUSH2 0xC33 JUMP JUMPDEST PUSH2 0x587 PUSH2 0xC36 JUMP JUMPDEST PUSH2 0x59B PUSH8 0xACE93F48F63B0ECA PUSH1 0xC0 SHL PUSH2 0xC33 JUMP JUMPDEST PUSH2 0x5AF PUSH8 0x2D532ABB39BF2C25 PUSH1 0xC0 SHL PUSH2 0xC33 JUMP JUMPDEST PUSH2 0x5B7 PUSH2 0xE2E JUMP JUMPDEST PUSH2 0x5CB PUSH8 0x12CDAAB2836BBF52 PUSH1 0xC0 SHL PUSH2 0xC33 JUMP JUMPDEST PUSH2 0x5DF PUSH8 0x7F171D75ED087AE9 PUSH1 0xC0 SHL PUSH2 0xC33 JUMP JUMPDEST PUSH2 0x5EA DUP5 DUP5 DUP5 PUSH2 0x1189 JUMP JUMPDEST POP PUSH2 0x5FF PUSH8 0x15A1232040478BF1 PUSH1 0xC0 SHL PUSH2 0xC33 JUMP JUMPDEST PUSH2 0x613 PUSH8 0x6ABDE794D0F078C5 PUSH1 0xC0 SHL PUSH2 0xC33 JUMP JUMPDEST PUSH1 0x1 SWAP1 POP SWAP4 SWAP3 POP POP POP JUMP JUMPDEST PUSH1 0xB PUSH1 0x0 SWAP1 SLOAD SWAP1 PUSH2 0x100 EXP SWAP1 DIV PUSH20 0xFFFFFFFFFFFFFFFFFFFFFFFFFFFFFFFFFFFFFFFF AND DUP2 JUMP JUMPDEST PUSH12 0x19D971E4FE8401E740000000 DUP2 JUMP JUMPDEST PUSH1 0x0 PUSH1 0x12 SWAP1 POP SWAP1 JUMP JUMPDEST PUSH1 0x0 DUP1 PUSH2 0x668 PUSH2 0xA62 JUMP JUMPDEST SWAP1 POP PUSH2 0x689 DUP2 DUP6 DUP6 PUSH2 0x67A DUP6 DUP10 PUSH2 0x9B5 JUMP JUMPDEST PUSH2 0x684 SWAP2 SWAP1 PUSH2 0x1A4F JUMP JUMPDEST PUSH2 0xA6A JUMP JUMPDEST PUSH1 0x1 SWAP2 POP POP SWAP3 SWAP2 POP POP JUMP JUMPDEST PUSH1 0x5 SLOAD DUP2 JUMP JUMPDEST PUSH1 0x9 PUSH1 0x0 SWAP1 SLOAD SWAP1 PUSH2 0x100 EXP SWAP1 DIV PUSH20 0xFFFFFFFFFFFFFFFFFFFFFFFFFFFFFFFFFFFFFFFF AND DUP2 JUMP JUMPDEST PUSH1 0x6 SLOAD DUP2 JUMP JUMPDEST PUSH1 0x0 DUP1 PUSH1 0x0 DUP4 PUSH20 0xFFFFFFFFFFFFFFFFFFFFFFFFFFFFFFFFFFFFFFFF AND PUSH20 0xFFFFFFFFFFFFFFFFFFFFFFFFFFFFFFFFFFFFFFFF AND DUP2 MSTORE PUSH1 0x20 ADD SWAP1 DUP2 MSTORE PUSH1 0x20 ADD PUSH1 0x0 KECCAK256 SLOAD SWAP1 POP SWAP2 SWAP1 POP JUMP JUMPDEST PUSH1 0xA PUSH1 0x0 SWAP1 SLOAD SWAP1 PUSH2 0x100 EXP SWAP1 DIV PUSH20 0xFFFFFFFFFFFFFFFFFFFFFFFFFFFFFFFFFFFFFFFF AND DUP2 JUMP JUMPDEST PUSH1 0xE PUSH1 0x0 SWAP1 SLOAD SWAP1 PUSH2 0x100 EXP SWAP1 DIV PUSH20 0xFFFFFFFFFFFFFFFFFFFFFFFFFFFFFFFFFFFFFFFF AND DUP2 JUMP JUMPDEST PUSH1 0xC PUSH1 0x0 SWAP1 SLOAD SWAP1 PUSH2 0x100 EXP SWAP1 DIV PUSH20 0xFFFFFFFFFFFFFFFFFFFFFFFFFFFFFFFFFFFFFFFF AND DUP2 JUMP JUMPDEST PUSH1 0x8 PUSH1 0x0 SWAP1 SLOAD SWAP1 PUSH2 0x100 EXP SWAP1 DIV PUSH20 0xFFFFFFFFFFFFFFFFFFFFFFFFFFFFFFFFFFFFFFFF AND DUP2 JUMP JUMPDEST PUSH1 0x60 PUSH1 0x4 DUP1 SLOAD PUSH2 0x7B5 SWAP1 PUSH2 0x19EF JUMP JUMPDEST DUP1 PUSH1 0x1F ADD PUSH1 0x20 DUP1 SWAP2 DIV MUL PUSH1 0x20 ADD PUSH1 0x40 MLOAD SWAP1 DUP2 ADD PUSH1 0x40 MSTORE DUP1 SWAP3 SWAP2 SWAP1 DUP2 DUP2 MSTORE PUSH1 0x20 ADD DUP3 DUP1 SLOAD PUSH2 0x7E1 SWAP1 PUSH2 0x19EF JUMP JUMPDEST DUP1 ISZERO PUSH2 0x82E JUMPI DUP1 PUSH1 0x1F LT PUSH2 0x803 JUMPI PUSH2 0x100 DUP1 DUP4 SLOAD DIV MUL DUP4 MSTORE SWAP2 PUSH1 0x20 ADD SWAP2 PUSH2 0x82E JUMP JUMPDEST DUP3 ADD SWAP2 SWAP1 PUSH1 0x0 MSTORE PUSH1 0x20 PUSH1 0x0 KECCAK256 SWAP1 JUMPDEST DUP2 SLOAD DUP2 MSTORE SWAP1 PUSH1 0x1 ADD SWAP1 PUSH1 0x20 ADD DUP1 DUP4 GT PUSH2 0x811 JUMPI DUP3 SWAP1 SUB PUSH1 0x1F AND DUP3 ADD SWAP2 JUMPDEST POP POP POP POP POP SWAP1 POP SWAP1 JUMP JUMPDEST PUSH1 0x0 DUP1 PUSH2 0x843 PUSH2 0xA62 JUMP JUMPDEST SWAP1 POP PUSH1 0x0 PUSH2 0x851 DUP3 DUP7 PUSH2 0x9B5 JUMP JUMPDEST SWAP1 POP DUP4 DUP2 LT ISZERO PUSH2 0x896 JUMPI PUSH1 0x40 MLOAD PUSH32 0x8C379A000000000000000000000000000000000000000000000000000000000 DUP2 MSTORE PUSH1 0x4 ADD PUSH2 0x88D SWAP1 PUSH2 0x1AF5 JUMP JUMPDEST PUSH1 0x40 MLOAD DUP1 SWAP2 SUB SWAP1 REVERT JUMPDEST PUSH2 0x8A3 DUP3 DUP7 DUP7 DUP5 SUB PUSH2 0xA6A JUMP JUMPDEST PUSH1 0x1 SWAP3 POP POP POP SWAP3 SWAP2 POP POP JUMP JUMPDEST PUSH1 0x0 PUSH2 0x8C5 PUSH8 0xA7D4D28755F3375 PUSH1 0xC0 SHL PUSH2 0xC33 JUMP JUMPDEST PUSH2 0x8D9 PUSH8 0x5A5FA34C8F16B8B PUSH1 0xC0 SHL PUSH2 0xC33 JUMP JUMPDEST PUSH2 0x8ED PUSH8 0xD126FA5198DFC842 PUSH1 0xC0 SHL PUSH2 0xC33 JUMP JUMPDEST PUSH2 0x8F5 PUSH2 0xC36 JUMP JUMPDEST PUSH2 0x909 PUSH8 0x1553613318A999BE PUSH1 0xC0 SHL PUSH2 0xC33 JUMP JUMPDEST PUSH2 0x91D PUSH8 0x4DED80B9BE91D2DC PUSH1 0xC0 SHL PUSH2 0xC33 JUMP JUMPDEST PUSH2 0x925 PUSH2 0xE2E JUMP JUMPDEST PUSH2 0x939 PUSH8 0x253233425EAE5E5B PUSH1 0xC0 SHL PUSH2 0xC33 JUMP JUMPDEST PUSH2 0x94D PUSH8 0xA3E615225DEA3945 PUSH1 0xC0 SHL PUSH2 0xC33 JUMP JUMPDEST PUSH2 0x957 DUP4 DUP4 PUSH2 0x11B8 JUMP JUMPDEST POP PUSH2 0x96C PUSH8 0xA0E2E4D5FDCB815C PUSH1 0xC0 SHL PUSH2 0xC33 JUMP JUMPDEST PUSH2 0x980 PUSH8 0xED43B28E9341BFDD PUSH1 0xC0 SHL PUSH2 0xC33 JUMP JUMPDEST PUSH1 0x1 SWAP1 POP SWAP3 SWAP2 POP POP JUMP JUMPDEST PUSH1 0x3 DUP2 JUMP JUMPDEST PUSH1 0x7 PUSH1 0x0 SWAP1 SLOAD SWAP1 PUSH2 0x100 EXP SWAP1 DIV PUSH20 0xFFFFFFFFFFFFFFFFFFFFFFFFFFFFFFFFFFFFFFFF AND DUP2 JUMP JUMPDEST PUSH1 0x0 PUSH1 0x1 PUSH1 0x0 DUP5 PUSH20 0xFFFFFFFFFFFFFFFFFFFFFFFFFFFFFFFFFFFFFFFF AND PUSH20 0xFFFFFFFFFFFFFFFFFFFFFFFFFFFFFFFFFFFFFFFF AND DUP2 MSTORE PUSH1 0x20 ADD SWAP1 DUP2 MSTORE PUSH1 0x20 ADD PUSH1 0x0 KECCAK256 PUSH1 0x0 DUP4 PUSH20 0xFFFFFFFFFFFFFFFFFFFFFFFFFFFFFFFFFFFFFFFF AND PUSH20 0xFFFFFFFFFFFFFFFFFFFFFFFFFFFFFFFFFFFFFFFF AND DUP2 MSTORE PUSH1 0x20 ADD SWAP1 DUP2 MSTORE PUSH1 0x20 ADD PUSH1 0x0 KECCAK256 SLOAD SWAP1 POP SWAP3 SWAP2 POP POP JUMP JUMPDEST PUSH1 0xD PUSH1 0x0 SWAP1 SLOAD SWAP1 PUSH2 0x100 EXP SWAP1 DIV PUSH20 0xFFFFFFFFFFFFFFFFFFFFFFFFFFFFFFFFFFFFFFFF AND DUP2 JUMP JUMPDEST PUSH1 0x0 CALLER SWAP1 POP SWAP1 JUMP JUMPDEST PUSH1 0x0 PUSH20 0xFFFFFFFFFFFFFFFFFFFFFFFFFFFFFFFFFFFFFFFF AND DUP4 PUSH20 0xFFFFFFFFFFFFFFFFFFFFFFFFFFFFFFFFFFFFFFFF AND SUB PUSH2 0xAD9 JUMPI PUSH1 0x40 MLOAD PUSH32 0x8C379A000000000000000000000000000000000000000000000000000000000 DUP2 MSTORE PUSH1 0x4 ADD PUSH2 0xAD0 SWAP1 PUSH2 0x1B87 JUMP JUMPDEST PUSH1 0x40 MLOAD DUP1 SWAP2 SUB SWAP1 REVERT JUMPDEST PUSH1 0x0 PUSH20 0xFFFFFFFFFFFFFFFFFFFFFFFFFFFFFFFFFFFFFFFF AND DUP3 PUSH20 0xFFFFFFFFFFFFFFFFFFFFFFFFFFFFFFFFFFFFFFFF AND SUB PUSH2 0xB48 JUMPI PUSH1 0x40 MLOAD PUSH32 0x8C379A000000000000000000000000000000000000000000000000000000000 DUP2 MSTORE PUSH1 0x4 ADD PUSH2 0xB3F SWAP1 PUSH2 0x1C19 JUMP JUMPDEST PUSH1 0x40 MLOAD DUP1 SWAP2 SUB SWAP1 REVERT JUMPDEST DUP1 PUSH1 0x1 PUSH1 0x0 DUP6 PUSH20 0xFFFFFFFFFFFFFFFFFFFFFFFFFFFFFFFFFFFFFFFF AND PUSH20 0xFFFFFFFFFFFFFFFFFFFFFFFFFFFFFFFFFFFFFFFF AND DUP2 MSTORE PUSH1 0x20 ADD SWAP1 DUP2 MSTORE PUSH1 0x20 ADD PUSH1 0x0 KECCAK256 PUSH1 0x0 DUP5 PUSH20 0xFFFFFFFFFFFFFFFFFFFFFFFFFFFFFFFFFFFFFFFF AND PUSH20 0xFFFFFFFFFFFFFFFFFFFFFFFFFFFFFFFFFFFFFFFF AND DUP2 MSTORE PUSH1 0x20 ADD SWAP1 DUP2 MSTORE PUSH1 0x20 ADD PUSH1 0x0 KECCAK256 DUP2 SWAP1 SSTORE POP DUP2 PUSH20 0xFFFFFFFFFFFFFFFFFFFFFFFFFFFFFFFFFFFFFFFF AND DUP4 PUSH20 0xFFFFFFFFFFFFFFFFFFFFFFFFFFFFFFFFFFFFFFFF AND PUSH32 0x8C5BE1E5EBEC7D5BD14F71427D1E84F3DD0314C0F7B2291E5B200AC8C7C3B925 DUP4 PUSH1 0x40 MLOAD PUSH2 0xC26 SWAP2 SWAP1 PUSH2 0x1884 JUMP JUMPDEST PUSH1 0x40 MLOAD DUP1 SWAP2 SUB SWAP1 LOG3 POP POP POP JUMP JUMPDEST POP JUMP JUMPDEST PUSH2 0xC4A PUSH8 0xD016E7F13E1B758D PUSH1 0xC0 SHL PUSH2 0xC33 JUMP JUMPDEST PUSH2 0xC5E PUSH8 0x8FD489CDDC1F6870 PUSH1 0xC0 SHL PUSH2 0xC33 JUMP JUMPDEST PUSH2 0xC72 PUSH8 0xA1350C89DE440251 PUSH1 0xC0 SHL PUSH2 0xC33 JUMP JUMPDEST PUSH4 0x1E13380 PUSH1 0x5 SLOAD PUSH2 0xC84 SWAP2 SWAP1 PUSH2 0x1A4F JUMP JUMPDEST TIMESTAMP LT PUSH2 0xE17 JUMPI PUSH2 0xC9E PUSH8 0xDD6A0EFDCFDEC681 PUSH1 0xC0 SHL PUSH2 0xC33 JUMP JUMPDEST PUSH2 0xCB2 PUSH8 0xA3B286E3639717AA PUSH1 0xC0 SHL PUSH2 0xC33 JUMP JUMPDEST PUSH2 0xCC6 PUSH8 0xAC47CF26F88795C9 PUSH1 0xC0 SHL PUSH2 0xC33 JUMP JUMPDEST PUSH1 0x0 PUSH2 0xCD0 PUSH2 0x537 JUMP JUMPDEST SWAP1 POP PUSH2 0xCE6 PUSH8 0xAE746B02326D9C5C PUSH1 0xC0 SHL PUSH2 0xC33 JUMP JUMPDEST PUSH2 0xCFA PUSH8 0x5852138F210EC42D PUSH1 0xC0 SHL PUSH2 0xC33 JUMP JUMPDEST PUSH1 0x0 PUSH1 0x64 PUSH1 0x3 DUP4 PUSH2 0xD0B SWAP2 SWAP1 PUSH2 0x1C39 JUMP JUMPDEST PUSH2 0xD15 SWAP2 SWAP1 PUSH2 0x1CAA JUMP JUMPDEST SWAP1 POP PUSH2 0xD2B PUSH8 0xDF2498DE0BA89FF3 PUSH1 0xC0 SHL PUSH2 0xC33 JUMP JUMPDEST PUSH2 0xD3F PUSH8 0x1F0E02E72A002396 PUSH1 0xC0 SHL PUSH2 0xC33 JUMP JUMPDEST PUSH1 0xF SLOAD PUSH2 0xD6D PUSH1 0x7 PUSH1 0x0 SWAP1 SLOAD SWAP1 PUSH2 0x100 EXP SWAP1 DIV PUSH20 0xFFFFFFFFFFFFFFFFFFFFFFFFFFFFFFFFFFFFFFFF AND PUSH2 0x6C6 JUMP JUMPDEST GT ISZERO PUSH2 0xDE0 JUMPI PUSH2 0xD87 PUSH8 0xD8AFA81E4ADB1238 PUSH1 0xC0 SHL PUSH2 0xC33 JUMP JUMPDEST PUSH2 0xD9B PUSH8 0xA8AEBD8D0009EDDF PUSH1 0xC0 SHL PUSH2 0xC33 JUMP JUMPDEST PUSH2 0xDAF PUSH8 0x6A0C36EFC89C95A3 PUSH1 0xC0 SHL PUSH2 0xC33 JUMP JUMPDEST PUSH2 0xDDB PUSH1 0x7 PUSH1 0x0 SWAP1 SLOAD SWAP1 PUSH2 0x100 EXP SWAP1 DIV PUSH20 0xFFFFFFFFFFFFFFFFFFFFFFFFFFFFFFFFFFFFFFFF AND DUP3 PUSH2 0x11DB JUMP JUMPDEST PUSH2 0xDF5 JUMP JUMPDEST PUSH2 0xDF4 PUSH8 0xB2DFF89AF899B620 PUSH1 0xC0 SHL PUSH2 0xC33 JUMP JUMPDEST JUMPDEST PUSH2 0xE09 PUSH8 0xEDA9F67EF04948B5 PUSH1 0xC0 SHL PUSH2 0xC33 JUMP JUMPDEST TIMESTAMP PUSH1 0x5 DUP2 SWAP1 SSTORE POP POP POP PUSH2 0xE2C JUMP JUMPDEST PUSH2 0xE2B PUSH8 0x10F9C24227CDCE41 PUSH1 0xC0 SHL PUSH2 0xC33 JUMP JUMPDEST JUMPDEST JUMP JUMPDEST PUSH2 0xE42 PUSH8 0x65C07C554A7D5CB PUSH1 0xC0 SHL PUSH2 0xC33 JUMP JUMPDEST PUSH2 0xE56 PUSH8 0x2729D91E7D8D2A7 PUSH1 0xC0 SHL PUSH2 0xC33 JUMP JUMPDEST PUSH2 0xE6A PUSH8 0x199E8D50D1246918 PUSH1 0xC0 SHL PUSH2 0xC33 JUMP JUMPDEST PUSH4 0x5A39A80 PUSH1 0x6 SLOAD PUSH2 0xE7C SWAP2 SWAP1 PUSH2 0x1A4F JUMP JUMPDEST TIMESTAMP LT PUSH2 0x1172 JUMPI PUSH2 0xE96 PUSH8 0x77C7B67572CC20FF PUSH1 0xC0 SHL PUSH2 0xC33 JUMP JUMPDEST PUSH2 0xEAA PUSH8 0x9CBEAC42F19FD732 PUSH1 0xC0 SHL PUSH2 0xC33 JUMP JUMPDEST PUSH2 0xEBE PUSH8 0xE5625C1943E14B7B PUSH1 0xC0 SHL PUSH2 0xC33 JUMP JUMPDEST PUSH2 0xF0F ADDRESS PUSH1 0x8 PUSH1 0x0 SWAP1 SLOAD SWAP1 PUSH2 0x100 EXP SWAP1 DIV PUSH20 0xFFFFFFFFFFFFFFFFFFFFFFFFFFFFFFFFFFFFFFFF AND PUSH1 0x64 PUSH1 0x14 PUSH12 0x19D971E4FE8401E740000000 PUSH2 0xF00 SWAP2 SWAP1 PUSH2 0x1C39 JUMP JUMPDEST PUSH2 0xF0A SWAP2 SWAP1 PUSH2 0x1CAA JUMP JUMPDEST PUSH2 0x13A8 JUMP JUMPDEST PUSH2 0xF23 PUSH8 0x6391DEF439D1D201 PUSH1 0xC0 SHL PUSH2 0xC33 JUMP JUMPDEST PUSH2 0xF37 PUSH8 0x90F2B4A1C54B3AE1 PUSH1 0xC0 SHL PUSH2 0xC33 JUMP JUMPDEST PUSH2 0xF88 ADDRESS PUSH1 0x9 PUSH1 0x0 SWAP1 SLOAD SWAP1 PUSH2 0x100 EXP SWAP1 DIV PUSH20 0xFFFFFFFFFFFFFFFFFFFFFFFFFFFFFFFFFFFFFFFF AND PUSH1 0x64 PUSH1 0x5 PUSH12 0x19D971E4FE8401E740000000 PUSH2 0xF79 SWAP2 SWAP1 PUSH2 0x1C39 JUMP JUMPDEST PUSH2 0xF83 SWAP2 SWAP1 PUSH2 0x1CAA JUMP JUMPDEST PUSH2 0x13A8 JUMP JUMPDEST PUSH2 0xF9C PUSH8 0x8EE9E1C9CA813A82 PUSH1 0xC0 SHL PUSH2 0xC33 JUMP JUMPDEST PUSH2 0xFB0 PUSH8 0xD55DE28B7F04A315 PUSH1 0xC0 SHL PUSH2 0xC33 JUMP JUMPDEST PUSH2 0x1001 ADDRESS PUSH1 0xA PUSH1 0x0 SWAP1 SLOAD SWAP1 PUSH2 0x100 EXP SWAP1 DIV PUSH20 0xFFFFFFFFFFFFFFFFFFFFFFFFFFFFFFFFFFFFFFFF AND PUSH1 0x64 PUSH1 0x5 PUSH12 0x19D971E4FE8401E740000000 PUSH2 0xFF2 SWAP2 SWAP1 PUSH2 0x1C39 JUMP JUMPDEST PUSH2 0xFFC SWAP2 SWAP1 PUSH2 0x1CAA JUMP JUMPDEST PUSH2 0x13A8 JUMP JUMPDEST PUSH2 0x1015 PUSH8 0xD87C8D0E628553FE PUSH1 0xC0 SHL PUSH2 0xC33 JUMP JUMPDEST PUSH2 0x1029 PUSH8 0x9D92592E34820AFB PUSH1 0xC0 SHL PUSH2 0xC33 JUMP JUMPDEST PUSH2 0x107A ADDRESS PUSH1 0xB PUSH1 0x0 SWAP1 SLOAD SWAP1 PUSH2 0x100 EXP SWAP1 DIV PUSH20 0xFFFFFFFFFFFFFFFFFFFFFFFFFFFFFFFFFFFFFFFF AND PUSH1 0x64 PUSH1 0x3 PUSH12 0x19D971E4FE8401E740000000 PUSH2 0x106B SWAP2 SWAP1 PUSH2 0x1C39 JUMP JUMPDEST PUSH2 0x1075 SWAP2 SWAP1 PUSH2 0x1CAA JUMP JUMPDEST PUSH2 0x13A8 JUMP JUMPDEST PUSH2 0x108E PUSH8 0x33DCFAC452FAF204 PUSH1 0xC0 SHL PUSH2 0xC33 JUMP JUMPDEST PUSH2 0x10A2 PUSH8 0xCB3963A7006D500B PUSH1 0xC0 SHL PUSH2 0xC33 JUMP JUMPDEST PUSH2 0x10F4 ADDRESS PUSH1 0xD PUSH1 0x0 SWAP1 SLOAD SWAP1 PUSH2 0x100 EXP SWAP1 DIV PUSH20 0xFFFFFFFFFFFFFFFFFFFFFFFFFFFFFFFFFFFFFFFF AND PUSH2 0x3E8 PUSH1 0x19 PUSH12 0x19D971E4FE8401E740000000 PUSH2 0x10E5 SWAP2 SWAP1 PUSH2 0x1C39 JUMP JUMPDEST PUSH2 0x10EF SWAP2 SWAP1 PUSH2 0x1CAA JUMP JUMPDEST PUSH2 0x13A8 JUMP JUMPDEST PUSH2 0x1108 PUSH8 0x5D3A46746539F57A PUSH1 0xC0 SHL PUSH2 0xC33 JUMP JUMPDEST PUSH2 0x111C PUSH8 0x4DDD4571E16769A PUSH1 0xC0 SHL PUSH2 0xC33 JUMP JUMPDEST PUSH2 0x116D ADDRESS PUSH1 0xE PUSH1 0x0 SWAP1 SLOAD SWAP1 PUSH2 0x100 EXP SWAP1 DIV PUSH20 0xFFFFFFFFFFFFFFFFFFFFFFFFFFFFFFFFFFFFFFFF AND PUSH1 0x64 PUSH1 0x1 PUSH12 0x19D971E4FE8401E740000000 PUSH2 0x115E SWAP2 SWAP1 PUSH2 0x1C39 JUMP JUMPDEST PUSH2 0x1168 SWAP2 SWAP1 PUSH2 0x1CAA JUMP JUMPDEST PUSH2 0x13A8 JUMP JUMPDEST PUSH2 0x1187 JUMP JUMPDEST PUSH2 0x1186 PUSH8 0x3CF3FFDDEC18AFCD PUSH1 0xC0 SHL PUSH2 0xC33 JUMP JUMPDEST JUMPDEST JUMP JUMPDEST PUSH1 0x0 DUP1 PUSH2 0x1194 PUSH2 0xA62 JUMP JUMPDEST SWAP1 POP PUSH2 0x11A1 DUP6 DUP3 DUP6 PUSH2 0x161E JUMP JUMPDEST PUSH2 0x11AC DUP6 DUP6 DUP6 PUSH2 0x13A8 JUMP JUMPDEST PUSH1 0x1 SWAP2 POP POP SWAP4 SWAP3 POP POP POP JUMP JUMPDEST PUSH1 0x0 DUP1 PUSH2 0x11C3 PUSH2 0xA62 JUMP JUMPDEST SWAP1 POP PUSH2 0x11D0 DUP2 DUP6 DUP6 PUSH2 0x13A8 JUMP JUMPDEST PUSH1 0x1 SWAP2 POP POP SWAP3 SWAP2 POP POP JUMP JUMPDEST PUSH1 0x0 PUSH20 0xFFFFFFFFFFFFFFFFFFFFFFFFFFFFFFFFFFFFFFFF AND DUP3 PUSH20 0xFFFFFFFFFFFFFFFFFFFFFFFFFFFFFFFFFFFFFFFF AND SUB PUSH2 0x124A JUMPI PUSH1 0x40 MLOAD PUSH32 0x8C379A000000000000000000000000000000000000000000000000000000000 DUP2 MSTORE PUSH1 0x4 ADD PUSH2 0x1241 SWAP1 PUSH2 0x1D4D JUMP JUMPDEST PUSH1 0x40 MLOAD DUP1 SWAP2 SUB SWAP1 REVERT JUMPDEST PUSH2 0x1256 DUP3 PUSH1 0x0 DUP4 PUSH2 0x16AA JUMP JUMPDEST PUSH1 0x0 DUP1 PUSH1 0x0 DUP5 PUSH20 0xFFFFFFFFFFFFFFFFFFFFFFFFFFFFFFFFFFFFFFFF AND PUSH20 0xFFFFFFFFFFFFFFFFFFFFFFFFFFFFFFFFFFFFFFFF AND DUP2 MSTORE PUSH1 0x20 ADD SWAP1 DUP2 MSTORE PUSH1 0x20 ADD PUSH1 0x0 KECCAK256 SLOAD SWAP1 POP DUP2 DUP2 LT ISZERO PUSH2 0x12DC JUMPI PUSH1 0x40 MLOAD PUSH32 0x8C379A000000000000000000000000000000000000000000000000000000000 DUP2 MSTORE PUSH1 0x4 ADD PUSH2 0x12D3 SWAP1 PUSH2 0x1DDF JUMP JUMPDEST PUSH1 0x40 MLOAD DUP1 SWAP2 SUB SWAP1 REVERT JUMPDEST DUP2 DUP2 SUB PUSH1 0x0 DUP1 DUP6 PUSH20 0xFFFFFFFFFFFFFFFFFFFFFFFFFFFFFFFFFFFFFFFF AND PUSH20 0xFFFFFFFFFFFFFFFFFFFFFFFFFFFFFFFFFFFFFFFF AND DUP2 MSTORE PUSH1 0x20 ADD SWAP1 DUP2 MSTORE PUSH1 0x20 ADD PUSH1 0x0 KECCAK256 DUP2 SWAP1 SSTORE POP DUP2 PUSH1 0x2 PUSH1 0x0 DUP3 DUP3 SLOAD SUB SWAP3 POP POP DUP2 SWAP1 SSTORE POP PUSH1 0x0 PUSH20 0xFFFFFFFFFFFFFFFFFFFFFFFFFFFFFFFFFFFFFFFF AND DUP4 PUSH20 0xFFFFFFFFFFFFFFFFFFFFFFFFFFFFFFFFFFFFFFFF AND PUSH32 0xDDF252AD1BE2C89B69C2B068FC378DAA952BA7F163C4A11628F55A4DF523B3EF DUP5 PUSH1 0x40 MLOAD PUSH2 0x138F SWAP2 SWAP1 PUSH2 0x1884 JUMP JUMPDEST PUSH1 0x40 MLOAD DUP1 SWAP2 SUB SWAP1 LOG3 PUSH2 0x13A3 DUP4 PUSH1 0x0 DUP5 PUSH2 0x16AF JUMP JUMPDEST POP POP POP JUMP JUMPDEST PUSH1 0x0 PUSH20 0xFFFFFFFFFFFFFFFFFFFFFFFFFFFFFFFFFFFFFFFF AND DUP4 PUSH20 0xFFFFFFFFFFFFFFFFFFFFFFFFFFFFFFFFFFFFFFFF AND SUB PUSH2 0x1417 JUMPI PUSH1 0x40 MLOAD PUSH32 0x8C379A000000000000000000000000000000000000000000000000000000000 DUP2 MSTORE PUSH1 0x4 ADD PUSH2 0x140E SWAP1 PUSH2 0x1E71 JUMP JUMPDEST PUSH1 0x40 MLOAD DUP1 SWAP2 SUB SWAP1 REVERT JUMPDEST PUSH1 0x0 PUSH20 0xFFFFFFFFFFFFFFFFFFFFFFFFFFFFFFFFFFFFFFFF AND DUP3 PUSH20 0xFFFFFFFFFFFFFFFFFFFFFFFFFFFFFFFFFFFFFFFF AND SUB PUSH2 0x1486 JUMPI PUSH1 0x40 MLOAD PUSH32 0x8C379A000000000000000000000000000000000000000000000000000000000 DUP2 MSTORE PUSH1 0x4 ADD PUSH2 0x147D SWAP1 PUSH2 0x1F03 JUMP JUMPDEST PUSH1 0x40 MLOAD DUP1 SWAP2 SUB SWAP1 REVERT JUMPDEST PUSH2 0x1491 DUP4 DUP4 DUP4 PUSH2 0x16AA JUMP JUMPDEST PUSH1 0x0 DUP1 PUSH1 0x0 DUP6 PUSH20 0xFFFFFFFFFFFFFFFFFFFFFFFFFFFFFFFFFFFFFFFF AND PUSH20 0xFFFFFFFFFFFFFFFFFFFFFFFFFFFFFFFFFFFFFFFF AND DUP2 MSTORE PUSH1 0x20 ADD SWAP1 DUP2 MSTORE PUSH1 0x20 ADD PUSH1 0x0 KECCAK256 SLOAD SWAP1 POP DUP2 DUP2 LT ISZERO PUSH2 0x1517 JUMPI PUSH1 0x40 MLOAD PUSH32 0x8C379A000000000000000000000000000000000000000000000000000000000 DUP2 MSTORE PUSH1 0x4 ADD PUSH2 0x150E SWAP1 PUSH2 0x1F95 JUMP JUMPDEST PUSH1 0x40 MLOAD DUP1 SWAP2 SUB SWAP1 REVERT JUMPDEST DUP2 DUP2 SUB PUSH1 0x0 DUP1 DUP7 PUSH20 0xFFFFFFFFFFFFFFFFFFFFFFFFFFFFFFFFFFFFFFFF AND PUSH20 0xFFFFFFFFFFFFFFFFFFFFFFFFFFFFFFFFFFFFFFFF AND DUP2 MSTORE PUSH1 0x20 ADD SWAP1 DUP2 MSTORE PUSH1 0x20 ADD PUSH1 0x0 KECCAK256 DUP2 SWAP1 SSTORE POP DUP2 PUSH1 0x0 DUP1 DUP6 PUSH20 0xFFFFFFFFFFFFFFFFFFFFFFFFFFFFFFFFFFFFFFFF AND PUSH20 0xFFFFFFFFFFFFFFFFFFFFFFFFFFFFFFFFFFFFFFFF AND DUP2 MSTORE PUSH1 0x20 ADD SWAP1 DUP2 MSTORE PUSH1 0x20 ADD PUSH1 0x0 KECCAK256 PUSH1 0x0 DUP3 DUP3 SLOAD ADD SWAP3 POP POP DUP2 SWAP1 SSTORE POP DUP3 PUSH20 0xFFFFFFFFFFFFFFFFFFFFFFFFFFFFFFFFFFFFFFFF AND DUP5 PUSH20 0xFFFFFFFFFFFFFFFFFFFFFFFFFFFFFFFFFFFFFFFF AND PUSH32 0xDDF252AD1BE2C89B69C2B068FC378DAA952BA7F163C4A11628F55A4DF523B3EF DUP5 PUSH1 0x40 MLOAD PUSH2 0x1605 SWAP2 SWAP1 PUSH2 0x1884 JUMP JUMPDEST PUSH1 0x40 MLOAD DUP1 SWAP2 SUB SWAP1 LOG3 PUSH2 0x1618 DUP5 DUP5 DUP5 PUSH2 0x16AF JUMP JUMPDEST POP POP POP POP JUMP JUMPDEST PUSH1 0x0 PUSH2 0x162A DUP5 DUP5 PUSH2 0x9B5 JUMP JUMPDEST SWAP1 POP PUSH32 0xFFFFFFFFFFFFFFFFFFFFFFFFFFFFFFFFFFFFFFFFFFFFFFFFFFFFFFFFFFFFFFFF DUP2 EQ PUSH2 0x16A4 JUMPI DUP2 DUP2 LT ISZERO PUSH2 0x1696 JUMPI PUSH1 0x40 MLOAD PUSH32 0x8C379A000000000000000000000000000000000000000000000000000000000 DUP2 MSTORE PUSH1 0x4 ADD PUSH2 0x168D SWAP1 PUSH2 0x2001 JUMP JUMPDEST PUSH1 0x40 MLOAD DUP1 SWAP2 SUB SWAP1 REVERT JUMPDEST PUSH2 0x16A3 DUP5 DUP5 DUP5 DUP5 SUB PUSH2 0xA6A JUMP JUMPDEST JUMPDEST POP POP POP POP JUMP JUMPDEST POP POP POP JUMP JUMPDEST POP POP POP JUMP JUMPDEST PUSH1 0x0 DUP2 MLOAD SWAP1 POP SWAP2 SWAP1 POP JUMP JUMPDEST PUSH1 0x0 DUP3 DUP3 MSTORE PUSH1 0x20 DUP3 ADD SWAP1 POP SWAP3 SWAP2 POP POP JUMP JUMPDEST PUSH1 0x0 JUMPDEST DUP4 DUP2 LT ISZERO PUSH2 0x16EE JUMPI DUP1 DUP3 ADD MLOAD DUP2 DUP5 ADD MSTORE PUSH1 0x20 DUP2 ADD SWAP1 POP PUSH2 0x16D3 JUMP JUMPDEST PUSH1 0x0 DUP5 DUP5 ADD MSTORE POP POP POP POP JUMP JUMPDEST PUSH1 0x0 PUSH1 0x1F NOT PUSH1 0x1F DUP4 ADD AND SWAP1 POP SWAP2 SWAP1 POP JUMP JUMPDEST PUSH1 0x0 PUSH2 0x1716 DUP3 PUSH2 0x16B4 JUMP JUMPDEST PUSH2 0x1720 DUP2 DUP6 PUSH2 0x16BF JUMP JUMPDEST SWAP4 POP PUSH2 0x1730 DUP2 DUP6 PUSH1 0x20 DUP7 ADD PUSH2 0x16D0 JUMP JUMPDEST PUSH2 0x1739 DUP2 PUSH2 0x16FA JUMP JUMPDEST DUP5 ADD SWAP2 POP POP SWAP3 SWAP2 POP POP JUMP JUMPDEST PUSH1 0x0 PUSH1 0x20 DUP3 ADD SWAP1 POP DUP2 DUP2 SUB PUSH1 0x0 DUP4 ADD MSTORE PUSH2 0x175E DUP2 DUP5 PUSH2 0x170B JUMP JUMPDEST SWAP1 POP SWAP3 SWAP2 POP POP JUMP JUMPDEST PUSH1 0x0 DUP1 REVERT JUMPDEST PUSH1 0x0 PUSH20 0xFFFFFFFFFFFFFFFFFFFFFFFFFFFFFFFFFFFFFFFF DUP3 AND SWAP1 POP SWAP2 SWAP1 POP JUMP JUMPDEST PUSH1 0x0 PUSH2 0x1796 DUP3 PUSH2 0x176B JUMP JUMPDEST SWAP1 POP SWAP2 SWAP1 POP JUMP JUMPDEST PUSH2 0x17A6 DUP2 PUSH2 0x178B JUMP JUMPDEST DUP2 EQ PUSH2 0x17B1 JUMPI PUSH1 0x0 DUP1 REVERT JUMPDEST POP JUMP JUMPDEST PUSH1 0x0 DUP2 CALLDATALOAD SWAP1 POP PUSH2 0x17C3 DUP2 PUSH2 0x179D JUMP JUMPDEST SWAP3 SWAP2 POP POP JUMP JUMPDEST PUSH1 0x0 DUP2 SWAP1 POP SWAP2 SWAP1 POP JUMP JUMPDEST PUSH2 0x17DC DUP2 PUSH2 0x17C9 JUMP JUMPDEST DUP2 EQ PUSH2 0x17E7 JUMPI PUSH1 0x0 DUP1 REVERT JUMPDEST POP JUMP JUMPDEST PUSH1 0x0 DUP2 CALLDATALOAD SWAP1 POP PUSH2 0x17F9 DUP2 PUSH2 0x17D3 JUMP JUMPDEST SWAP3 SWAP2 POP POP JUMP JUMPDEST PUSH1 0x0 DUP1 PUSH1 0x40 DUP4 DUP6 SUB SLT ISZERO PUSH2 0x1816 JUMPI PUSH2 0x1815 PUSH2 0x1766 JUMP JUMPDEST JUMPDEST PUSH1 0x0 PUSH2 0x1824 DUP6 DUP3 DUP7 ADD PUSH2 0x17B4 JUMP JUMPDEST SWAP3 POP POP PUSH1 0x20 PUSH2 0x1835 DUP6 DUP3 DUP7 ADD PUSH2 0x17EA JUMP JUMPDEST SWAP2 POP POP SWAP3 POP SWAP3 SWAP1 POP JUMP JUMPDEST PUSH1 0x0 DUP2 ISZERO ISZERO SWAP1 POP SWAP2 SWAP1 POP JUMP JUMPDEST PUSH2 0x1854 DUP2 PUSH2 0x183F JUMP JUMPDEST DUP3 MSTORE POP POP JUMP JUMPDEST PUSH1 0x0 PUSH1 0x20 DUP3 ADD SWAP1 POP PUSH2 0x186F PUSH1 0x0 DUP4 ADD DUP5 PUSH2 0x184B JUMP JUMPDEST SWAP3 SWAP2 POP POP JUMP JUMPDEST PUSH2 0x187E DUP2 PUSH2 0x17C9 JUMP JUMPDEST DUP3 MSTORE POP POP JUMP JUMPDEST PUSH1 0x0 PUSH1 0x20 DUP3 ADD SWAP1 POP PUSH2 0x1899 PUSH1 0x0 DUP4 ADD DUP5 PUSH2 0x1875 JUMP JUMPDEST SWAP3 SWAP2 POP POP JUMP JUMPDEST PUSH1 0x0 DUP1 PUSH1 0x0 PUSH1 0x60 DUP5 DUP7 SUB SLT ISZERO PUSH2 0x18B8 JUMPI PUSH2 0x18B7 PUSH2 0x1766 JUMP JUMPDEST JUMPDEST PUSH1 0x0 PUSH2 0x18C6 DUP7 DUP3 DUP8 ADD PUSH2 0x17B4 JUMP JUMPDEST SWAP4 POP POP PUSH1 0x20 PUSH2 0x18D7 DUP7 DUP3 DUP8 ADD PUSH2 0x17B4 JUMP JUMPDEST SWAP3 POP POP PUSH1 0x40 PUSH2 0x18E8 DUP7 DUP3 DUP8 ADD PUSH2 0x17EA JUMP JUMPDEST SWAP2 POP POP SWAP3 POP SWAP3 POP SWAP3 JUMP JUMPDEST PUSH2 0x18FB DUP2 PUSH2 0x178B JUMP JUMPDEST DUP3 MSTORE POP POP JUMP JUMPDEST PUSH1 0x0 PUSH1 0x20 DUP3 ADD SWAP1 POP PUSH2 0x1916 PUSH1 0x0 DUP4 ADD DUP5 PUSH2 0x18F2 JUMP JUMPDEST SWAP3 SWAP2 POP POP JUMP JUMPDEST PUSH1 0x0 PUSH1 0xFF DUP3 AND SWAP1 POP SWAP2 SWAP1 POP JUMP JUMPDEST PUSH2 0x1932 DUP2 PUSH2 0x191C JUMP JUMPDEST DUP3 MSTORE POP POP JUMP JUMPDEST PUSH1 0x0 PUSH1 0x20 DUP3 ADD SWAP1 POP PUSH2 0x194D PUSH1 0x0 DUP4 ADD DUP5 PUSH2 0x1929 JUMP JUMPDEST SWAP3 SWAP2 POP POP JUMP JUMPDEST PUSH1 0x0 PUSH1 0x20 DUP3 DUP5 SUB SLT ISZERO PUSH2 0x1969 JUMPI PUSH2 0x1968 PUSH2 0x1766 JUMP JUMPDEST JUMPDEST PUSH1 0x0 PUSH2 0x1977 DUP5 DUP3 DUP6 ADD PUSH2 0x17B4 JUMP JUMPDEST SWAP2 POP POP SWAP3 SWAP2 POP POP JUMP JUMPDEST PUSH1 0x0 DUP1 PUSH1 0x40 DUP4 DUP6 SUB SLT ISZERO PUSH2 0x1997 JUMPI PUSH2 0x1996 PUSH2 0x1766 JUMP JUMPDEST JUMPDEST PUSH1 0x0 PUSH2 0x19A5 DUP6 DUP3 DUP7 ADD PUSH2 0x17B4 JUMP JUMPDEST SWAP3 POP POP PUSH1 0x20 PUSH2 0x19B6 DUP6 DUP3 DUP7 ADD PUSH2 0x17B4 JUMP JUMPDEST SWAP2 POP POP SWAP3 POP SWAP3 SWAP1 POP JUMP JUMPDEST PUSH32 0x4E487B7100000000000000000000000000000000000000000000000000000000 PUSH1 0x0 MSTORE PUSH1 0x22 PUSH1 0x4 MSTORE PUSH1 0x24 PUSH1 0x0 REVERT JUMPDEST PUSH1 0x0 PUSH1 0x2 DUP3 DIV SWAP1 POP PUSH1 0x1 DUP3 AND DUP1 PUSH2 0x1A07 JUMPI PUSH1 0x7F DUP3 AND SWAP2 POP JUMPDEST PUSH1 0x20 DUP3 LT DUP2 SUB PUSH2 0x1A1A JUMPI PUSH2 0x1A19 PUSH2 0x19C0 JUMP JUMPDEST JUMPDEST POP SWAP2 SWAP1 POP JUMP JUMPDEST PUSH32 0x4E487B7100000000000000000000000000000000000000000000000000000000 PUSH1 0x0 MSTORE PUSH1 0x11 PUSH1 0x4 MSTORE PUSH1 0x24 PUSH1 0x0 REVERT JUMPDEST PUSH1 0x0 PUSH2 0x1A5A DUP3 PUSH2 0x17C9 JUMP JUMPDEST SWAP2 POP PUSH2 0x1A65 DUP4 PUSH2 0x17C9 JUMP JUMPDEST SWAP3 POP DUP3 DUP3 ADD SWAP1 POP DUP1 DUP3 GT ISZERO PUSH2 0x1A7D JUMPI PUSH2 0x1A7C PUSH2 0x1A20 JUMP JUMPDEST JUMPDEST SWAP3 SWAP2 POP POP JUMP JUMPDEST PUSH32 0x45524332303A2064656372656173656420616C6C6F77616E63652062656C6F77 PUSH1 0x0 DUP3 ADD MSTORE PUSH32 0x207A65726F000000000000000000000000000000000000000000000000000000 PUSH1 0x20 DUP3 ADD MSTORE POP JUMP JUMPDEST PUSH1 0x0 PUSH2 0x1ADF PUSH1 0x25 DUP4 PUSH2 0x16BF JUMP JUMPDEST SWAP2 POP PUSH2 0x1AEA DUP3 PUSH2 0x1A83 JUMP JUMPDEST PUSH1 0x40 DUP3 ADD SWAP1 POP SWAP2 SWAP1 POP JUMP JUMPDEST PUSH1 0x0 PUSH1 0x20 DUP3 ADD SWAP1 POP DUP2 DUP2 SUB PUSH1 0x0 DUP4 ADD MSTORE PUSH2 0x1B0E DUP2 PUSH2 0x1AD2 JUMP JUMPDEST SWAP1 POP SWAP2 SWAP1 POP JUMP JUMPDEST PUSH32 0x45524332303A20617070726F76652066726F6D20746865207A65726F20616464 PUSH1 0x0 DUP3 ADD MSTORE PUSH32 0x7265737300000000000000000000000000000000000000000000000000000000 PUSH1 0x20 DUP3 ADD MSTORE POP JUMP JUMPDEST PUSH1 0x0 PUSH2 0x1B71 PUSH1 0x24 DUP4 PUSH2 0x16BF JUMP JUMPDEST SWAP2 POP PUSH2 0x1B7C DUP3 PUSH2 0x1B15 JUMP JUMPDEST PUSH1 0x40 DUP3 ADD SWAP1 POP SWAP2 SWAP1 POP JUMP JUMPDEST PUSH1 0x0 PUSH1 0x20 DUP3 ADD SWAP1 POP DUP2 DUP2 SUB PUSH1 0x0 DUP4 ADD MSTORE PUSH2 0x1BA0 DUP2 PUSH2 0x1B64 JUMP JUMPDEST SWAP1 POP SWAP2 SWAP1 POP JUMP JUMPDEST PUSH32 0x45524332303A20617070726F766520746F20746865207A65726F206164647265 PUSH1 0x0 DUP3 ADD MSTORE PUSH32 0x7373000000000000000000000000000000000000000000000000000000000000 PUSH1 0x20 DUP3 ADD MSTORE POP JUMP JUMPDEST PUSH1 0x0 PUSH2 0x1C03 PUSH1 0x22 DUP4 PUSH2 0x16BF JUMP JUMPDEST SWAP2 POP PUSH2 0x1C0E DUP3 PUSH2 0x1BA7 JUMP JUMPDEST PUSH1 0x40 DUP3 ADD SWAP1 POP SWAP2 SWAP1 POP JUMP JUMPDEST PUSH1 0x0 PUSH1 0x20 DUP3 ADD SWAP1 POP DUP2 DUP2 SUB PUSH1 0x0 DUP4 ADD MSTORE PUSH2 0x1C32 DUP2 PUSH2 0x1BF6 JUMP JUMPDEST SWAP1 POP SWAP2 SWAP1 POP JUMP JUMPDEST PUSH1 0x0 PUSH2 0x1C44 DUP3 PUSH2 0x17C9 JUMP JUMPDEST SWAP2 POP PUSH2 0x1C4F DUP4 PUSH2 0x17C9 JUMP JUMPDEST SWAP3 POP DUP3 DUP3 MUL PUSH2 0x1C5D DUP2 PUSH2 0x17C9 JUMP JUMPDEST SWAP2 POP DUP3 DUP3 DIV DUP5 EQ DUP4 ISZERO OR PUSH2 0x1C74 JUMPI PUSH2 0x1C73 PUSH2 0x1A20 JUMP JUMPDEST JUMPDEST POP SWAP3 SWAP2 POP POP JUMP JUMPDEST PUSH32 0x4E487B7100000000000000000000000000000000000000000000000000000000 PUSH1 0x0 MSTORE PUSH1 0x12 PUSH1 0x4 MSTORE PUSH1 0x24 PUSH1 0x0 REVERT JUMPDEST PUSH1 0x0 PUSH2 0x1CB5 DUP3 PUSH2 0x17C9 JUMP JUMPDEST SWAP2 POP PUSH2 0x1CC0 DUP4 PUSH2 0x17C9 JUMP JUMPDEST SWAP3 POP DUP3 PUSH2 0x1CD0 JUMPI PUSH2 0x1CCF PUSH2 0x1C7B JUMP JUMPDEST JUMPDEST DUP3 DUP3 DIV SWAP1 POP SWAP3 SWAP2 POP POP JUMP JUMPDEST PUSH32 0x45524332303A206275726E2066726F6D20746865207A65726F20616464726573 PUSH1 0x0 DUP3 ADD MSTORE PUSH32 0x7300000000000000000000000000000000000000000000000000000000000000 PUSH1 0x20 DUP3 ADD MSTORE POP JUMP JUMPDEST PUSH1 0x0 PUSH2 0x1D37 PUSH1 0x21 DUP4 PUSH2 0x16BF JUMP JUMPDEST SWAP2 POP PUSH2 0x1D42 DUP3 PUSH2 0x1CDB JUMP JUMPDEST PUSH1 0x40 DUP3 ADD SWAP1 POP SWAP2 SWAP1 POP JUMP JUMPDEST PUSH1 0x0 PUSH1 0x20 DUP3 ADD SWAP1 POP DUP2 DUP2 SUB PUSH1 0x0 DUP4 ADD MSTORE PUSH2 0x1D66 DUP2 PUSH2 0x1D2A JUMP JUMPDEST SWAP1 POP SWAP2 SWAP1 POP JUMP JUMPDEST PUSH32 0x45524332303A206275726E20616D6F756E7420657863656564732062616C616E PUSH1 0x0 DUP3 ADD MSTORE PUSH32 0x6365000000000000000000000000000000000000000000000000000000000000 PUSH1 0x20 DUP3 ADD MSTORE POP JUMP JUMPDEST PUSH1 0x0 PUSH2 0x1DC9 PUSH1 0x22 DUP4 PUSH2 0x16BF JUMP JUMPDEST SWAP2 POP PUSH2 0x1DD4 DUP3 PUSH2 0x1D6D JUMP JUMPDEST PUSH1 0x40 DUP3 ADD SWAP1 POP SWAP2 SWAP1 POP JUMP JUMPDEST PUSH1 0x0 PUSH1 0x20 DUP3 ADD SWAP1 POP DUP2 DUP2 SUB PUSH1 0x0 DUP4 ADD MSTORE PUSH2 0x1DF8 DUP2 PUSH2 0x1DBC JUMP JUMPDEST SWAP1 POP SWAP2 SWAP1 POP JUMP JUMPDEST PUSH32 0x45524332303A207472616E736665722066726F6D20746865207A65726F206164 PUSH1 0x0 DUP3 ADD MSTORE PUSH32 0x6472657373000000000000000000000000000000000000000000000000000000 PUSH1 0x20 DUP3 ADD MSTORE POP JUMP JUMPDEST PUSH1 0x0 PUSH2 0x1E5B PUSH1 0x25 DUP4 PUSH2 0x16BF JUMP JUMPDEST SWAP2 POP PUSH2 0x1E66 DUP3 PUSH2 0x1DFF JUMP JUMPDEST PUSH1 0x40 DUP3 ADD SWAP1 POP SWAP2 SWAP1 POP JUMP JUMPDEST PUSH1 0x0 PUSH1 0x20 DUP3 ADD SWAP1 POP DUP2 DUP2 SUB PUSH1 0x0 DUP4 ADD MSTORE PUSH2 0x1E8A DUP2 PUSH2 0x1E4E JUMP JUMPDEST SWAP1 POP SWAP2 SWAP1 POP JUMP JUMPDEST PUSH32 0x45524332303A207472616E7366657220746F20746865207A65726F2061646472 PUSH1 0x0 DUP3 ADD MSTORE PUSH32 0x6573730000000000000000000000000000000000000000000000000000000000 PUSH1 0x20 DUP3 ADD MSTORE POP JUMP JUMPDEST PUSH1 0x0 PUSH2 0x1EED PUSH1 0x23 DUP4 PUSH2 0x16BF JUMP JUMPDEST SWAP2 POP PUSH2 0x1EF8 DUP3 PUSH2 0x1E91 JUMP JUMPDEST PUSH1 0x40 DUP3 ADD SWAP1 POP SWAP2 SWAP1 POP JUMP JUMPDEST PUSH1 0x0 PUSH1 0x20 DUP3 ADD SWAP1 POP DUP2 DUP2 SUB PUSH1 0x0 DUP4 ADD MSTORE PUSH2 0x1F1C DUP2 PUSH2 0x1EE0 JUMP JUMPDEST SWAP1 POP SWAP2 SWAP1 POP JUMP JUMPDEST PUSH32 0x45524332303A207472616E7366657220616D6F756E7420657863656564732062 PUSH1 0x0 DUP3 ADD MSTORE PUSH32 0x616C616E63650000000000000000000000000000000000000000000000000000 PUSH1 0x20 DUP3 ADD MSTORE POP JUMP JUMPDEST PUSH1 0x0 PUSH2 0x1F7F PUSH1 0x26 DUP4 PUSH2 0x16BF JUMP JUMPDEST SWAP2 POP PUSH2 0x1F8A DUP3 PUSH2 0x1F23 JUMP JUMPDEST PUSH1 0x40 DUP3 ADD SWAP1 POP SWAP2 SWAP1 POP JUMP JUMPDEST PUSH1 0x0 PUSH1 0x20 DUP3 ADD SWAP1 POP DUP2 DUP2 SUB PUSH1 0x0 DUP4 ADD MSTORE PUSH2 0x1FAE DUP2 PUSH2 0x1F72 JUMP JUMPDEST SWAP1 POP SWAP2 SWAP1 POP JUMP JUMPDEST PUSH32 0x45524332303A20696E73756666696369656E7420616C6C6F77616E6365000000 PUSH1 0x0 DUP3 ADD MSTORE POP JUMP JUMPDEST PUSH1 0x0 PUSH2 0x1FEB PUSH1 0x1D DUP4 PUSH2 0x16BF JUMP JUMPDEST SWAP2 POP PUSH2 0x1FF6 DUP3 PUSH2 0x1FB5 JUMP JUMPDEST PUSH1 0x20 DUP3 ADD SWAP1 POP SWAP2 SWAP1 POP JUMP JUMPDEST PUSH1 0x0 PUSH1 0x20 DUP3 ADD SWAP1 POP DUP2 DUP2 SUB PUSH1 0x0 DUP4 ADD MSTORE PUSH2 0x201A DUP2 PUSH2 0x1FDE JUMP JUMPDEST SWAP1 POP SWAP2 SWAP1 POP JUMP INVALID LOG2 PUSH5 0x6970667358 0x22 SLT KECCAK256 0x49 0xA6 PUSH6 0xBDF8EE0FC441 0xB5 0xAB DUP7 0xEE CALLER SUB MLOAD 0xA7 0xAB SWAP13 0xE MLOAD OR AND 0xEC PUSH8 0x86EE3ABD103D4864 PUSH20 0x6F6C634300081200330000000000000000000000 "},"methodIdentifiers":{"ANNUAL_BURN_RATE()":"ae15a8f6","INITIAL_SUPPLY()":"2ff2e9dc","allowance(address,address)":"dd62ed3e","approve(address,uint256)":"095ea7b3","balanceOf(address)":"70a08231","charity()":"934aa023","community()":"dc1fb5a5","decimals()":"313ce567","decreaseAllowance(address,uint256)":"a457c2d7","development()":"7b929c27","expansion()":"7fce0203","foundation()":"41fbb050","increaseAllowance(address,uint256)":"39509351","investors()":"8ac27f5f","lastBurnTimestamp()":"3d3d937d","legal()":"e377ac31","marketing()":"2d3e474a","name()":"06fdde03","symbol()":"95d89b41","timeOfContractCreation()":"67fea82e","totalSupply()":"18160ddd","transfer(address,uint256)":"a9059cbb","transferFrom(address,address,uint256)":"23b872dd"}}}}}